{
  "contractName": "DigitalReserve",
  "abi": [
    {
      "inputs": [
        {
          "internalType": "address",
          "name": "_router",
          "type": "address"
        },
        {
          "internalType": "address",
          "name": "_aaveRouter",
          "type": "address"
        },
        {
          "internalType": "address",
          "name": "_aaveProtocol",
          "type": "address"
        },
        {
          "internalType": "address",
          "name": "_drcAddress",
          "type": "address"
        },
        {
          "internalType": "string",
          "name": "_name",
          "type": "string"
        },
        {
          "internalType": "string",
          "name": "_symbol",
          "type": "string"
        }
      ],
      "stateMutability": "nonpayable",
      "type": "constructor"
    },
    {
      "anonymous": false,
      "inputs": [
        {
          "indexed": true,
          "internalType": "address",
          "name": "owner",
          "type": "address"
        },
        {
          "indexed": true,
          "internalType": "address",
          "name": "spender",
          "type": "address"
        },
        {
          "indexed": false,
          "internalType": "uint256",
          "name": "value",
          "type": "uint256"
        }
      ],
      "name": "Approval",
      "type": "event"
    },
    {
      "anonymous": false,
      "inputs": [
        {
          "indexed": true,
          "internalType": "address",
          "name": "user",
          "type": "address"
        },
        {
          "indexed": false,
          "internalType": "uint256",
          "name": "amount",
          "type": "uint256"
        },
        {
          "indexed": false,
          "internalType": "uint256",
          "name": "podMinted",
          "type": "uint256"
        },
        {
          "indexed": false,
          "internalType": "uint256",
          "name": "podTotalSupply",
          "type": "uint256"
        },
        {
          "indexed": false,
          "internalType": "uint256",
          "name": "tokensStored",
          "type": "uint256"
        }
      ],
      "name": "Deposit",
      "type": "event"
    },
    {
      "anonymous": false,
      "inputs": [
        {
          "indexed": true,
          "internalType": "address",
          "name": "previousOwner",
          "type": "address"
        },
        {
          "indexed": true,
          "internalType": "address",
          "name": "newOwner",
          "type": "address"
        }
      ],
      "name": "OwnershipTransferred",
      "type": "event"
    },
    {
      "anonymous": false,
      "inputs": [
        {
          "indexed": false,
          "internalType": "address",
          "name": "oldTokenA",
          "type": "address"
        },
        {
          "indexed": false,
          "internalType": "address",
          "name": "oldTokenB",
          "type": "address"
        },
        {
          "indexed": false,
          "internalType": "address",
          "name": "newTokenA",
          "type": "address"
        },
        {
          "indexed": false,
          "internalType": "address",
          "name": "newTokenB",
          "type": "address"
        },
        {
          "indexed": false,
          "internalType": "uint256",
          "name": "tokensStored",
          "type": "uint256"
        }
      ],
      "name": "SetToken",
      "type": "event"
    },
    {
      "anonymous": false,
      "inputs": [
        {
          "indexed": true,
          "internalType": "address",
          "name": "from",
          "type": "address"
        },
        {
          "indexed": true,
          "internalType": "address",
          "name": "to",
          "type": "address"
        },
        {
          "indexed": false,
          "internalType": "uint256",
          "name": "value",
          "type": "uint256"
        }
      ],
      "name": "Transfer",
      "type": "event"
    },
    {
      "anonymous": false,
      "inputs": [
        {
          "indexed": true,
          "internalType": "address",
          "name": "user",
          "type": "address"
        },
        {
          "indexed": false,
          "internalType": "uint256",
          "name": "amount",
          "type": "uint256"
        },
        {
          "indexed": false,
          "internalType": "uint256",
          "name": "fees",
          "type": "uint256"
        },
        {
          "indexed": false,
          "internalType": "uint256",
          "name": "podBurned",
          "type": "uint256"
        },
        {
          "indexed": false,
          "internalType": "uint256",
          "name": "podTotalSupply",
          "type": "uint256"
        },
        {
          "indexed": false,
          "internalType": "uint256",
          "name": "tokensStored",
          "type": "uint256"
        }
      ],
      "name": "Withdraw",
      "type": "event"
    },
    {
      "inputs": [
        {
          "internalType": "address",
          "name": "owner",
          "type": "address"
        },
        {
          "internalType": "address",
          "name": "spender",
          "type": "address"
        }
      ],
      "name": "allowance",
      "outputs": [
        {
          "internalType": "uint256",
          "name": "",
          "type": "uint256"
        }
      ],
      "stateMutability": "view",
      "type": "function"
    },
    {
      "inputs": [
        {
          "internalType": "address",
          "name": "spender",
          "type": "address"
        },
        {
          "internalType": "uint256",
          "name": "amount",
          "type": "uint256"
        }
      ],
      "name": "approve",
      "outputs": [
        {
          "internalType": "bool",
          "name": "",
          "type": "bool"
        }
      ],
      "stateMutability": "nonpayable",
      "type": "function"
    },
    {
      "inputs": [
        {
          "internalType": "address",
          "name": "account",
          "type": "address"
        }
      ],
      "name": "balanceOf",
      "outputs": [
        {
          "internalType": "uint256",
          "name": "",
          "type": "uint256"
        }
      ],
      "stateMutability": "view",
      "type": "function"
    },
    {
      "inputs": [],
      "name": "decimals",
      "outputs": [
        {
          "internalType": "uint8",
          "name": "",
          "type": "uint8"
        }
      ],
      "stateMutability": "view",
      "type": "function"
    },
    {
      "inputs": [
        {
          "internalType": "address",
          "name": "spender",
          "type": "address"
        },
        {
          "internalType": "uint256",
          "name": "subtractedValue",
          "type": "uint256"
        }
      ],
      "name": "decreaseAllowance",
      "outputs": [
        {
          "internalType": "bool",
          "name": "",
          "type": "bool"
        }
      ],
      "stateMutability": "nonpayable",
      "type": "function"
    },
    {
      "inputs": [
        {
          "internalType": "address",
          "name": "spender",
          "type": "address"
        },
        {
          "internalType": "uint256",
          "name": "addedValue",
          "type": "uint256"
        }
      ],
      "name": "increaseAllowance",
      "outputs": [
        {
          "internalType": "bool",
          "name": "",
          "type": "bool"
        }
      ],
      "stateMutability": "nonpayable",
      "type": "function"
    },
    {
      "inputs": [],
      "name": "name",
      "outputs": [
        {
          "internalType": "string",
          "name": "",
          "type": "string"
        }
      ],
      "stateMutability": "view",
      "type": "function"
    },
    {
      "inputs": [],
      "name": "owner",
      "outputs": [
        {
          "internalType": "address",
          "name": "",
          "type": "address"
        }
      ],
      "stateMutability": "view",
      "type": "function"
    },
    {
      "inputs": [],
      "name": "renounceOwnership",
      "outputs": [],
      "stateMutability": "nonpayable",
      "type": "function"
    },
    {
      "inputs": [],
      "name": "symbol",
      "outputs": [
        {
          "internalType": "string",
          "name": "",
          "type": "string"
        }
      ],
      "stateMutability": "view",
      "type": "function"
    },
    {
      "inputs": [],
      "name": "totalSupply",
      "outputs": [
        {
          "internalType": "uint256",
          "name": "",
          "type": "uint256"
        }
      ],
      "stateMutability": "view",
      "type": "function"
    },
    {
      "inputs": [
        {
          "internalType": "address",
          "name": "recipient",
          "type": "address"
        },
        {
          "internalType": "uint256",
          "name": "amount",
          "type": "uint256"
        }
      ],
      "name": "transfer",
      "outputs": [
        {
          "internalType": "bool",
          "name": "",
          "type": "bool"
        }
      ],
      "stateMutability": "nonpayable",
      "type": "function"
    },
    {
      "inputs": [
        {
          "internalType": "address",
          "name": "sender",
          "type": "address"
        },
        {
          "internalType": "address",
          "name": "recipient",
          "type": "address"
        },
        {
          "internalType": "uint256",
          "name": "amount",
          "type": "uint256"
        }
      ],
      "name": "transferFrom",
      "outputs": [
        {
          "internalType": "bool",
          "name": "",
          "type": "bool"
        }
      ],
      "stateMutability": "nonpayable",
      "type": "function"
    },
    {
      "inputs": [
        {
          "internalType": "address",
          "name": "newOwner",
          "type": "address"
        }
      ],
      "name": "transferOwnership",
      "outputs": [],
      "stateMutability": "nonpayable",
      "type": "function"
    },
    {
      "inputs": [],
      "name": "withdrawalFee",
      "outputs": [
        {
          "internalType": "uint8",
          "name": "",
          "type": "uint8"
        },
        {
          "internalType": "uint8",
          "name": "",
          "type": "uint8"
        }
      ],
      "stateMutability": "view",
      "type": "function"
    },
    {
      "inputs": [],
      "name": "priceDecimals",
      "outputs": [
        {
          "internalType": "uint8",
          "name": "",
          "type": "uint8"
        }
      ],
      "stateMutability": "view",
      "type": "function"
    },
    {
      "inputs": [],
      "name": "totalTokenStored",
      "outputs": [
        {
          "internalType": "uint256",
          "name": "",
          "type": "uint256"
        }
      ],
      "stateMutability": "view",
      "type": "function"
    },
    {
      "inputs": [
        {
          "internalType": "address",
          "name": "user",
          "type": "address"
        }
      ],
      "name": "getUserVaultInDrc",
      "outputs": [
        {
          "internalType": "uint256",
          "name": "",
          "type": "uint256"
        },
        {
          "internalType": "uint256",
          "name": "",
          "type": "uint256"
        },
        {
          "internalType": "uint256",
          "name": "",
          "type": "uint256"
        }
      ],
      "stateMutability": "view",
      "type": "function"
    },
    {
      "inputs": [],
      "name": "getProofOfDepositPrice",
      "outputs": [
        {
          "internalType": "uint256",
          "name": "",
          "type": "uint256"
        }
      ],
      "stateMutability": "view",
      "type": "function"
    },
    {
      "inputs": [
        {
          "internalType": "uint256",
          "name": "drcAmount",
          "type": "uint256"
        },
        {
          "internalType": "uint32",
          "name": "deadline",
          "type": "uint32"
        }
      ],
      "name": "depositDrc",
      "outputs": [],
      "stateMutability": "nonpayable",
      "type": "function"
    },
    {
      "inputs": [
        {
          "internalType": "uint256",
          "name": "drcAmount",
          "type": "uint256"
        },
        {
          "internalType": "uint32",
          "name": "deadline",
          "type": "uint32"
        }
      ],
      "name": "withdrawDrc",
      "outputs": [],
      "stateMutability": "nonpayable",
      "type": "function"
    },
    {
      "inputs": [
        {
          "internalType": "uint8",
          "name": "percentage",
          "type": "uint8"
        },
        {
          "internalType": "uint32",
          "name": "deadline",
          "type": "uint32"
        }
      ],
      "name": "withdrawPercentage",
      "outputs": [],
      "stateMutability": "nonpayable",
      "type": "function"
    },
    {
      "inputs": [
        {
          "internalType": "bool",
          "name": "status",
          "type": "bool"
        }
      ],
      "name": "changeDepositStatus",
      "outputs": [],
      "stateMutability": "nonpayable",
      "type": "function"
    },
    {
      "inputs": [
        {
          "internalType": "uint8",
          "name": "withdrawalFeeFraction_",
          "type": "uint8"
        },
        {
          "internalType": "uint8",
          "name": "withdrawalFeeBase_",
          "type": "uint8"
        }
      ],
      "name": "changeFee",
      "outputs": [],
      "stateMutability": "nonpayable",
      "type": "function"
    },
    {
      "inputs": [
        {
          "internalType": "address",
          "name": "usdcToken_",
          "type": "address"
        },
        {
          "internalType": "uint32",
          "name": "deadline",
          "type": "uint32"
        }
      ],
      "name": "setTokenAddress",
      "outputs": [],
      "stateMutability": "nonpayable",
      "type": "function"
    }
  ],
  "bytecode": "0x60e060405260058054600160a81b60ff60a81b199091161760ff60b01b1916601960b21b17905560646006556009805460ff60a01b191690553480156200004557600080fd5b5060405162004c6a38038062004c6a833981810160405260c08110156200006b57600080fd5b8151602083015160408085015160608601516080870180519351959794969295919491939282019284640100000000821115620000a757600080fd5b908301906020820185811115620000bd57600080fd5b8251640100000000811182820188101715620000d857600080fd5b82525081516020918201929091019080838360005b8381101562000107578181015183820152602001620000ed565b50505050905090810190601f168015620001355780820380516001836020036101000a031916815260200191505b50604052602001805160405193929190846401000000008211156200015957600080fd5b9083019060208201858111156200016f57600080fd5b82516401000000008111828201881017156200018a57600080fd5b82525081516020918201929091019080838360005b83811015620001b95781810151838201526020016200019f565b50505050905090810190601f168015620001e75780820380516001836020036101000a031916815260200191505b5060405250508251839150829062000207906003906020850190620002df565b5080516200021d906004906020840190620002df565b50506005805460ff1916601217905550600062000239620002db565b60058054610100600160a81b0319166101006001600160a01b03841690810291909117909155604051919250906000907f8be0079c531659141344cd1fd0a4f28419497f9722a3daafe3b4186f6b6457e0908290a35050600780546001600160a01b039093166001600160a01b031990931692909217909155506001600160601b0319606093841b811660805291831b821660a05290911b1660c0526200037b565b3390565b828054600181600116156101000203166002900490600052602060002090601f016020900481019282601f106200032257805160ff191683800117855562000352565b8280016001018555821562000352579182015b828111156200035257825182559160200191906001019062000335565b506200036092915062000364565b5090565b5b8082111562000360576000815560010162000365565b60805160601c60a05160601c60c05160601c61485f6200040b60003980611dc35250806107075280610c705280612d7c5280612da65280613466525080610ed55280610fe8528061269052806127ba52806128ad528061292a5280612bdc528061314a52806132b652806133c352806138c252806139a45280613b2b5280613ca35280613ffe525061485f6000f3fe608060405234801561001057600080fd5b50600436106101a35760003560e01c806370a08231116100ee578063a47c12b511610097578063bd80662111610071578063bd8066211461055f578063c2b20a1814610567578063dd62ed3e146105a6578063f2fde38b146105e1576101a3565b8063a47c12b5146104b6578063a9059cbb146104d5578063bb2a9ad71461050e576101a3565b80638da5cb5b116100c85780638da5cb5b1461044457806395d89b4114610475578063a457c2d71461047d576101a3565b806370a08231146103de578063715018a6146104115780638bc7e8c414610419576101a3565b8063313ce567116101505780634c1839181161012a5780634c183918146103615780636c3f4e071461038a5780636f827c34146103b2576101a3565b8063313ce567146102f557806339509351146102fd57806347e6dece14610336576101a3565b806318160ddd1161018157806318160ddd1461029057806318181a9c146102aa57806323b872dd146102b2576101a3565b806305300b28146101a857806306fdde03146101c6578063095ea7b314610243575b600080fd5b6101b0610614565b6040805160ff9092168252519081900360200190f35b6101ce610619565b6040805160208082528351818301528351919283929083019185019080838360005b838110156102085781810151838201526020016101f0565b50505050905090810190601f1680156102355780820380516001836020036101000a031916815260200191505b509250505060405180910390f35b61027c6004803603604081101561025957600080fd5b5073ffffffffffffffffffffffffffffffffffffffff81351690602001356106cd565b604080519115158252519081900360200190f35b6102986106eb565b60408051918252519081900360200190f35b6102986106f1565b61027c600480360360608110156102c857600080fd5b5073ffffffffffffffffffffffffffffffffffffffff813581169160208101359091169060400135610864565b6101b0610906565b61027c6004803603604081101561031357600080fd5b5073ffffffffffffffffffffffffffffffffffffffff813516906020013561090f565b61035f6004803603604081101561034c57600080fd5b508035906020013563ffffffff1661096a565b005b61035f6004803603604081101561037757600080fd5b508035906020013563ffffffff16610e3c565b61035f600480360360408110156103a057600080fd5b5060ff813581169160200135166112d7565b61035f600480360360408110156103c857600080fd5b50803560ff16906020013563ffffffff166114e4565b610298600480360360208110156103f457600080fd5b503573ffffffffffffffffffffffffffffffffffffffff166115e0565b61035f611608565b610421611712565b604051808360ff1681526020018260ff1681526020019250505060405180910390f35b61044c611752565b6040805173ffffffffffffffffffffffffffffffffffffffff9092168252519081900360200190f35b6101ce611773565b61027c6004803603604081101561049357600080fd5b5073ffffffffffffffffffffffffffffffffffffffff81351690602001356117f2565b61035f600480360360208110156104cc57600080fd5b50351515611867565b61027c600480360360408110156104eb57600080fd5b5073ffffffffffffffffffffffffffffffffffffffff8135169060200135611947565b6105416004803603602081101561052457600080fd5b503573ffffffffffffffffffffffffffffffffffffffff1661195b565b60408051938452602084019290925282820152519081900360600190f35b610298611a8a565b61035f6004803603604081101561057d57600080fd5b50803573ffffffffffffffffffffffffffffffffffffffff16906020013563ffffffff16611bb4565b610298600480360360408110156105bc57600080fd5b5073ffffffffffffffffffffffffffffffffffffffff81358116916020013516611f2a565b61035f600480360360208110156105f757600080fd5b503573ffffffffffffffffffffffffffffffffffffffff16611f62565b601290565b60038054604080516020601f60027fffffffffffffffffffffffffffffffffffffffffffffffffffffffffffffffff6101006001881615020190951694909404938401819004810282018101909252828152606093909290918301828280156106c35780601f10610698576101008083540402835291602001916106c3565b820191906000526020600020905b8154815290600101906020018083116106a657829003601f168201915b5050505050905090565b60006106e16106da6120fc565b8484612100565b5060015b92915050565b60025490565b600080806106fd6106eb565b111561085f5760007f000000000000000000000000000000000000000000000000000000000000000073ffffffffffffffffffffffffffffffffffffffff16630261bf8b6040518163ffffffff1660e01b815260040160206040518083038186803b15801561076b57600080fd5b505afa15801561077f573d6000803e3d6000fd5b505050506040513d602081101561079557600080fd5b5051604080517fbf92857c000000000000000000000000000000000000000000000000000000008152306004820152905191925060009173ffffffffffffffffffffffffffffffffffffffff84169163bf92857c9160248083019260c0929190829003018186803b15801561080957600080fd5b505afa15801561081d573d6000803e3d6000fd5b505050506040513d60c081101561083357600080fd5b5051905061085a6108426106eb565b61085483670de0b6b3a7640000612247565b906122ba565b925050505b905090565b60006108718484846122fc565b6108fb8461087d6120fc565b6108f6856040518060600160405280602881526020016146ba6028913973ffffffffffffffffffffffffffffffffffffffff8a166000908152600160205260408120906108c86120fc565b73ffffffffffffffffffffffffffffffffffffffff16815260208101919091526040016000205491906124cc565b612100565b5060015b9392505050565b60055460ff1690565b60006106e161091c6120fc565b846108f6856001600061092d6120fc565b73ffffffffffffffffffffffffffffffffffffffff908116825260208083019390935260409182016000908120918c16815292529020549061257d565b60095474010000000000000000000000000000000000000000900460ff166109f357604080517f08c379a000000000000000000000000000000000000000000000000000000000815260206004820152601460248201527f4465706f7369742069732064697361626c65642e000000000000000000000000604482015290519081900360640190fd5b600754604080517fdd62ed3e0000000000000000000000000000000000000000000000000000000081523360048201523060248201529051849273ffffffffffffffffffffffffffffffffffffffff169163dd62ed3e916044808301926020929190829003018186803b158015610a6957600080fd5b505afa158015610a7d573d6000803e3d6000fd5b505050506040513d6020811015610a9357600080fd5b50511015610aec576040517f08c379a000000000000000000000000000000000000000000000000000000000815260040180806020018281038252602c8152602001806147d9602c913960400191505060405180910390fd5b600754604080517f70a082310000000000000000000000000000000000000000000000000000000081523360048201529051849273ffffffffffffffffffffffffffffffffffffffff16916370a08231916024808301926020929190829003018186803b158015610b5c57600080fd5b505afa158015610b70573d6000803e3d6000fd5b505050506040513d6020811015610b8657600080fd5b50511015610bdf576040517f08c379a00000000000000000000000000000000000000000000000000000000081526004018080602001828103825260278152602001806145676027913960400191505060405180910390fd5b600754610c049073ffffffffffffffffffffffffffffffffffffffff163330856125f1565b6000610c0e6106f1565b600754909150600090610c3990859073ffffffffffffffffffffffffffffffffffffffff168561268c565b9050610c458184612d30565b506000610c506106eb565b610c6c57610c658566038d7ea4c68000612247565b9050610dd2565b60007f000000000000000000000000000000000000000000000000000000000000000073ffffffffffffffffffffffffffffffffffffffff16630261bf8b6040518163ffffffff1660e01b815260040160206040518083038186803b158015610cd457600080fd5b505afa158015610ce8573d6000803e3d6000fd5b505050506040513d6020811015610cfe57600080fd5b5051604080517fbf92857c000000000000000000000000000000000000000000000000000000008152306004820152905191925060009173ffffffffffffffffffffffffffffffffffffffff84169163bf92857c9160248083019260c0929190829003018186803b158015610d7257600080fd5b505afa158015610d86573d6000803e3d6000fd5b505050506040513d60c0811015610d9c57600080fd5b505190506000610db88661085484670de0b6b3a7640000612247565b9050610dcc610dc56106eb565b8290612ee5565b93505050505b610ddc3382612f27565b337f7162984403f6c73c8639375d45a9187dfd04602231bd8e587c415718b5f7e5f98683610e086106eb565b610e10611a8a565b604080519485526020850193909352838301919091526060830152519081900360800190a25050505050565b6000610e47336115e0565b11610eb357604080517f08c379a000000000000000000000000000000000000000000000000000000000815260206004820152601260248201527f5661756c742062616c616e636520697320300000000000000000000000000000604482015290519081900360640190fd5b60408051600280825260608083018452926020830190803683370190505090507f000000000000000000000000000000000000000000000000000000000000000073ffffffffffffffffffffffffffffffffffffffff1663ad5c46486040518163ffffffff1660e01b815260040160206040518083038186803b158015610f3957600080fd5b505afa158015610f4d573d6000803e3d6000fd5b505050506040513d6020811015610f6357600080fd5b505181518290600090610f7257fe5b73ffffffffffffffffffffffffffffffffffffffff9283166020918202929092010152600754825191169082906001908110610faa57fe5b602002602001019073ffffffffffffffffffffffffffffffffffffffff16908173ffffffffffffffffffffffffffffffffffffffff168152505060007f000000000000000000000000000000000000000000000000000000000000000073ffffffffffffffffffffffffffffffffffffffff16631f00ca7485846040518363ffffffff1660e01b81526004018083815260200180602001828103825283818151815260200191508051906020019060200280838360005b83811015611079578181015183820152602001611061565b50505050905001935050505060006040518083038186803b15801561109d57600080fd5b505afa1580156110b1573d6000803e3d6000fd5b505050506040513d6000823e601f3d9081017fffffffffffffffffffffffffffffffffffffffffffffffffffffffffffffffe016820160405260208110156110f857600080fd5b810190808051604051939291908464010000000082111561111857600080fd5b90830190602082018581111561112d57600080fd5b825186602082028301116401000000008211171561114a57600080fd5b82525081516020918201928201910280838360005b8381101561117757818101518382015260200161115f565b5050505090500160405250505060008151811061119057fe5b60209081029190910101516005549091506000906111f09060ff7601000000000000000000000000000000000000000000008204811691610854918691750100000000000000000000000000000000000000000090048116840116612247565b90506000611205611200336115e0565b613058565b60095490915060009061123090839073ffffffffffffffffffffffffffffffffffffffff1683613141565b90508281101561128b576040517f08c379a000000000000000000000000000000000000000000000000000000000815260040180806020018281038252602d8152602001806146e2602d913960400191505060405180910390fd5b60006112a082610854866402540be400612247565b905060006112c06402540be400610854846112ba336115e0565b90612247565b90506112cc81896131e0565b505050505050505050565b6112df6120fc565b600554610100900473ffffffffffffffffffffffffffffffffffffffff90811691161461136d57604080517f08c379a000000000000000000000000000000000000000000000000000000000815260206004820181905260248201527f4f776e61626c653a2063616c6c6572206973206e6f7420746865206f776e6572604482015290519081900360640190fd5b8060ff168260ff1611156113e257604080517f08c379a000000000000000000000000000000000000000000000000000000000815260206004820152601b60248201527f466565206672616374696f6e20657863656564656420626173652e0000000000604482015290519081900360640190fd5b60008160ff168360640260ff16816113f657fe5b04905060028160ff161115611456576040517f08c379a000000000000000000000000000000000000000000000000000000000815260040180806020018281038252602981526020018061461b6029913960400191505060405180910390fd5b506005805460ff928316760100000000000000000000000000000000000000000000027fffffffffffffffffff00ffffffffffffffffffffffffffffffffffffffffffff949093167501000000000000000000000000000000000000000000027fffffffffffffffffffff00ffffffffffffffffffffffffffffffffffffffffff9091161792909216179055565b60006114ef336115e0565b1161155b57604080517f08c379a000000000000000000000000000000000000000000000000000000000815260206004820152601260248201527f5661756c742062616c616e636520697320300000000000000000000000000000604482015290519081900360640190fd5b60648260ff1611156115b8576040517f08c379a000000000000000000000000000000000000000000000000000000000815260040180806020018281038252602f81526020018061466a602f913960400191505060405180910390fd5b60006115cf60646108548560ff166112ba336115e0565b90506115db81836131e0565b505050565b73ffffffffffffffffffffffffffffffffffffffff1660009081526020819052604090205490565b6116106120fc565b600554610100900473ffffffffffffffffffffffffffffffffffffffff90811691161461169e57604080517f08c379a000000000000000000000000000000000000000000000000000000000815260206004820181905260248201527f4f776e61626c653a2063616c6c6572206973206e6f7420746865206f776e6572604482015290519081900360640190fd5b600554604051600091610100900473ffffffffffffffffffffffffffffffffffffffff16907f8be0079c531659141344cd1fd0a4f28419497f9722a3daafe3b4186f6b6457e0908390a3600580547fffffffffffffffffffffff0000000000000000000000000000000000000000ff169055565b60055460ff750100000000000000000000000000000000000000000082048116917601000000000000000000000000000000000000000000009004169091565b600554610100900473ffffffffffffffffffffffffffffffffffffffff1690565b60048054604080516020601f60027fffffffffffffffffffffffffffffffffffffffffffffffffffffffffffffffff6101006001881615020190951694909404938401819004810282018101909252828152606093909290918301828280156106c35780601f10610698576101008083540402835291602001916106c3565b60006106e16117ff6120fc565b846108f68560405180606001604052806025815260200161480560259139600160006118296120fc565b73ffffffffffffffffffffffffffffffffffffffff908116825260208083019390935260409182016000908120918d168152925290205491906124cc565b61186f6120fc565b600554610100900473ffffffffffffffffffffffffffffffffffffffff9081169116146118fd57604080517f08c379a000000000000000000000000000000000000000000000000000000000815260206004820181905260248201527f4f776e61626c653a2063616c6c6572206973206e6f7420746865206f776e6572604482015290519081900360640190fd5b6009805491151574010000000000000000000000000000000000000000027fffffffffffffffffffffff00ffffffffffffffffffffffffffffffffffffffff909216919091179055565b60006106e16119546120fc565b84846122fc565b60008060008061196d611200866115e0565b60095490915060009061199990839073ffffffffffffffffffffffffffffffffffffffff166001613141565b6009549091506000906119c490849073ffffffffffffffffffffffffffffffffffffffff1683613141565b6007549091506000906119f090849073ffffffffffffffffffffffffffffffffffffffff1660016133bb565b600554909150600090611a47907501000000000000000000000000000000000000000000810460ff908116760100000000000000000000000000000000000000000000909204811682011690610854908690612247565b90506000611a78611a588584612ee5565b60075473ffffffffffffffffffffffffffffffffffffffff1660006133bb565b929a9299509097509095505050505050565b60085460009073ffffffffffffffffffffffffffffffffffffffff16611b1157604080517f08c379a000000000000000000000000000000000000000000000000000000000815260206004820152601a60248201527f61555344432061646472657373206d757374206265207365742e000000000000604482015290519081900360640190fd5b600854604080517f70a08231000000000000000000000000000000000000000000000000000000008152306004820152905160009273ffffffffffffffffffffffffffffffffffffffff16916370a08231916024808301926020929190829003018186803b158015611b8257600080fd5b505afa158015611b96573d6000803e3d6000fd5b505050506040513d6020811015611bac57600080fd5b505191505090565b611bbc6120fc565b600554610100900473ffffffffffffffffffffffffffffffffffffffff908116911614611c4a57604080517f08c379a000000000000000000000000000000000000000000000000000000000815260206004820181905260248201527f4f776e61626c653a2063616c6c6572206973206e6f7420746865206f776e6572604482015290519081900360640190fd5b73ffffffffffffffffffffffffffffffffffffffff8216611ccc57604080517f08c379a000000000000000000000000000000000000000000000000000000000815260206004820152601960248201527f555344432061646472657373206d757374206265207365742e00000000000000604482015290519081900360640190fd5b6009546000908190819073ffffffffffffffffffffffffffffffffffffffff1615801590611d11575060085473ffffffffffffffffffffffffffffffffffffffff1615155b15611d4d5760095460085473ffffffffffffffffffffffffffffffffffffffff9182169450169150611d4a611d44611a8a565b8561345a565b90505b600980547fffffffffffffffffffffffff00000000000000000000000000000000000000001673ffffffffffffffffffffffffffffffffffffffff878116918217909255604080517fd2493b6c0000000000000000000000000000000000000000000000000000000081526004810192909252517f00000000000000000000000000000000000000000000000000000000000000009092169163d2493b6c91602480820192606092909190829003018186803b158015611e0c57600080fd5b505afa158015611e20573d6000803e3d6000fd5b505050506040513d6060811015611e3657600080fd5b5051600880547fffffffffffffffffffffffff00000000000000000000000000000000000000001673ffffffffffffffffffffffffffffffffffffffff9092169190911790558015611e8e57611e8c8185612d30565b505b6009546008547f95263ff5fd39f5722e7238d5ea66835088eb36c08cb0cf3c6c83aa9950e737cc918591859173ffffffffffffffffffffffffffffffffffffffff9081169116611edc611a8a565b6040805173ffffffffffffffffffffffffffffffffffffffff968716815294861660208601529285168484015293166060830152608082019290925290519081900360a00190a15050505050565b73ffffffffffffffffffffffffffffffffffffffff918216600090815260016020908152604080832093909416825291909152205490565b611f6a6120fc565b600554610100900473ffffffffffffffffffffffffffffffffffffffff908116911614611ff857604080517f08c379a000000000000000000000000000000000000000000000000000000000815260206004820181905260248201527f4f776e61626c653a2063616c6c6572206973206e6f7420746865206f776e6572604482015290519081900360640190fd5b73ffffffffffffffffffffffffffffffffffffffff8116612064576040517f08c379a00000000000000000000000000000000000000000000000000000000081526004018080602001828103825260268152602001806145d36026913960400191505060405180910390fd5b60055460405173ffffffffffffffffffffffffffffffffffffffff80841692610100900416907f8be0079c531659141344cd1fd0a4f28419497f9722a3daafe3b4186f6b6457e090600090a36005805473ffffffffffffffffffffffffffffffffffffffff909216610100027fffffffffffffffffffffff0000000000000000000000000000000000000000ff909216919091179055565b3390565b73ffffffffffffffffffffffffffffffffffffffff831661216c576040517f08c379a00000000000000000000000000000000000000000000000000000000081526004018080602001828103825260248152602001806147556024913960400191505060405180910390fd5b73ffffffffffffffffffffffffffffffffffffffff82166121d8576040517f08c379a00000000000000000000000000000000000000000000000000000000081526004018080602001828103825260228152602001806145f96022913960400191505060405180910390fd5b73ffffffffffffffffffffffffffffffffffffffff808416600081815260016020908152604080832094871680845294825291829020859055815185815291517f8c5be1e5ebec7d5bd14f71427d1e84f3dd0314c0f7b2291e5b200ac8c7c3b9259281900390910190a3505050565b600082612256575060006106e5565b8282028284828161226357fe5b04146108ff576040517f08c379a00000000000000000000000000000000000000000000000000000000081526004018080602001828103825260218152602001806146996021913960400191505060405180910390fd5b60006108ff83836040518060400160405280601a81526020017f536166654d6174683a206469766973696f6e206279207a65726f0000000000008152506135d9565b73ffffffffffffffffffffffffffffffffffffffff8316612368576040517f08c379a00000000000000000000000000000000000000000000000000000000081526004018080602001828103825260258152602001806147306025913960400191505060405180910390fd5b73ffffffffffffffffffffffffffffffffffffffff82166123d4576040517f08c379a000000000000000000000000000000000000000000000000000000000815260040180806020018281038252602381526020018061458e6023913960400191505060405180910390fd5b6123df8383836115db565b612429816040518060600160405280602681526020016146446026913973ffffffffffffffffffffffffffffffffffffffff861660009081526020819052604090205491906124cc565b73ffffffffffffffffffffffffffffffffffffffff8085166000908152602081905260408082209390935590841681522054612465908261257d565b73ffffffffffffffffffffffffffffffffffffffff8084166000818152602081815260409182902094909455805185815290519193928716927fddf252ad1be2c89b69c2b068fc378daa952ba7f163c4a11628f55a4df523b3ef92918290030190a3505050565b60008184841115612575576040517f08c379a00000000000000000000000000000000000000000000000000000000081526004018080602001828103825283818151815260200191508051906020019080838360005b8381101561253a578181015183820152602001612522565b50505050905090810190601f1680156125675780820380516001836020036101000a031916815260200191505b509250505060405180910390fd5b505050900390565b6000828201838110156108ff57604080517f08c379a000000000000000000000000000000000000000000000000000000000815260206004820152601b60248201527f536166654d6174683a206164646974696f6e206f766572666c6f770000000000604482015290519081900360640190fd5b6040805173ffffffffffffffffffffffffffffffffffffffff80861660248301528416604482015260648082018490528251808303909101815260849091019091526020810180517bffffffffffffffffffffffffffffffffffffffffffffffffffffffff167f23b872dd00000000000000000000000000000000000000000000000000000000179052612686908590613658565b50505050565b60007f000000000000000000000000000000000000000000000000000000000000000073ffffffffffffffffffffffffffffffffffffffff1663ad5c46486040518163ffffffff1660e01b815260040160206040518083038186803b1580156126f457600080fd5b505afa158015612708573d6000803e3d6000fd5b505050506040513d602081101561271e57600080fd5b505173ffffffffffffffffffffffffffffffffffffffff84811691161480612744575083155b156127505750826108ff565b6040805160028082526060808301845292602083019080368337019050509050838160008151811061277e57fe5b602002602001019073ffffffffffffffffffffffffffffffffffffffff16908173ffffffffffffffffffffffffffffffffffffffff16815250507f000000000000000000000000000000000000000000000000000000000000000073ffffffffffffffffffffffffffffffffffffffff1663ad5c46486040518163ffffffff1660e01b815260040160206040518083038186803b15801561281e57600080fd5b505afa158015612832573d6000803e3d6000fd5b505050506040513d602081101561284857600080fd5b505181518290600190811061285957fe5b602002602001019073ffffffffffffffffffffffffffffffffffffffff16908173ffffffffffffffffffffffffffffffffffffffff16815250506128d2816000815181106128a357fe5b60200260200101517f000000000000000000000000000000000000000000000000000000000000000087613730565b604080517fd06ca61f000000000000000000000000000000000000000000000000000000008152600481018781526024820192835283516044830152835160009373ffffffffffffffffffffffffffffffffffffffff7f0000000000000000000000000000000000000000000000000000000000000000169363d06ca61f938b938893919260640190602080860191028083838c5b8381101561297f578181015183820152602001612967565b50505050905001935050505060006040518083038186803b1580156129a357600080fd5b505afa1580156129b7573d6000803e3d6000fd5b505050506040513d6000823e601f3d9081017fffffffffffffffffffffffffffffffffffffffffffffffffffffffffffffffe016820160405260208110156129fe57600080fd5b8101908080516040519392919084640100000000821115612a1e57600080fd5b908301906020820185811115612a3357600080fd5b8251866020820283011164010000000082111715612a5057600080fd5b82525081516020918201928201910280838360005b83811015612a7d578181015183820152602001612a65565b50505050905001604052505050600181518110612a9657fe5b602002602001015190506000612abd6103e86108546103e78561224790919063ffffffff16565b9050600083600181518110612ace57fe5b602002602001015173ffffffffffffffffffffffffffffffffffffffff166370a08231306040518263ffffffff1660e01b8152600401808273ffffffffffffffffffffffffffffffffffffffff16815260200191505060206040518083038186803b158015612b3c57600080fd5b505afa158015612b50573d6000803e3d6000fd5b505050506040513d6020811015612b6657600080fd5b50516040517f5c11d795000000000000000000000000000000000000000000000000000000008152600481018a815260248201859052306064830181905263ffffffff8a16608484015260a060448401908152885160a4850152885194955073ffffffffffffffffffffffffffffffffffffffff7f00000000000000000000000000000000000000000000000000000000000000001694635c11d795948e9489948c9490938f9360c401906020878101910280838360005b83811015612c36578181015183820152602001612c1e565b505050509050019650505050505050600060405180830381600087803b158015612c5f57600080fd5b505af1158015612c73573d6000803e3d6000fd5b50505050600084600181518110612c8657fe5b602002602001015173ffffffffffffffffffffffffffffffffffffffff166370a08231306040518263ffffffff1660e01b8152600401808273ffffffffffffffffffffffffffffffffffffffff16815260200191505060206040518083038186803b158015612cf457600080fd5b505afa158015612d08573d6000803e3d6000fd5b505050506040513d6020811015612d1e57600080fd5b50519190910398975050505050505050565b6009546000908190612d5a90859073ffffffffffffffffffffffffffffffffffffffff16856138be565b600954909150612da19073ffffffffffffffffffffffffffffffffffffffff167f000000000000000000000000000000000000000000000000000000000000000086613730565b6000807f000000000000000000000000000000000000000000000000000000000000000073ffffffffffffffffffffffffffffffffffffffff16630261bf8b6040518163ffffffff1660e01b815260040160206040518083038186803b158015612e0a57600080fd5b505afa158015612e1e573d6000803e3d6000fd5b505050506040513d6020811015612e3457600080fd5b5051600954604080517fe8eda9df00000000000000000000000000000000000000000000000000000000815273ffffffffffffffffffffffffffffffffffffffff92831660048201526024810187905230604482015261ffff8616606482015290519293509083169163e8eda9df9160848082019260009290919082900301818387803b158015612ec457600080fd5b505af1158015612ed8573d6000803e3d6000fd5b5050505050505092915050565b60006108ff83836040518060400160405280601e81526020017f536166654d6174683a207375627472616374696f6e206f766572666c6f7700008152506124cc565b73ffffffffffffffffffffffffffffffffffffffff8216612fa957604080517f08c379a000000000000000000000000000000000000000000000000000000000815260206004820152601f60248201527f45524332303a206d696e7420746f20746865207a65726f206164647265737300604482015290519081900360640190fd5b612fb5600083836115db565b600254612fc2908261257d565b60025573ffffffffffffffffffffffffffffffffffffffff8216600090815260208190526040902054612ff5908261257d565b73ffffffffffffffffffffffffffffffffffffffff83166000818152602081815260408083209490945583518581529351929391927fddf252ad1be2c89b69c2b068fc378daa952ba7f163c4a11628f55a4df523b3ef9281900390910190a35050565b60008080806130656106eb565b1115613088576130856130766106eb565b610854866402540be400612247565b90505b600854604080517f70a082310000000000000000000000000000000000000000000000000000000081523060048201529051613139926402540be4009261085492869273ffffffffffffffffffffffffffffffffffffffff16916370a08231916024808301926020929190829003018186803b15801561310757600080fd5b505afa15801561311b573d6000803e3d6000fd5b505050506040513d602081101561313157600080fd5b505190612247565b949350505050565b600061313984847f000000000000000000000000000000000000000000000000000000000000000073ffffffffffffffffffffffffffffffffffffffff1663ad5c46486040518163ffffffff1660e01b815260040160206040518083038186803b1580156131ae57600080fd5b505afa1580156131c2573d6000803e3d6000fd5b505050506040513d60208110156131d857600080fd5b505185613e82565b60006131eb83613058565b90506131f7338461419e565b6000613203828461345a565b60055490915060009061325a907501000000000000000000000000000000000000000000810460ff908116760100000000000000000000000000000000000000000000909204811682011690610854908590612247565b9050600061328a61326b8484612ee5565b60075473ffffffffffffffffffffffffffffffffffffffff16876138be565b6007549091506132b19073ffffffffffffffffffffffffffffffffffffffff1633836142e8565b6133547f000000000000000000000000000000000000000000000000000000000000000073ffffffffffffffffffffffffffffffffffffffff1663ad5c46486040518163ffffffff1660e01b815260040160206040518083038186803b15801561331a57600080fd5b505afa15801561332e573d6000803e3d6000fd5b505050506040513d602081101561334457600080fd5b505161334e611752565b846142e8565b337fb7ee00edafdb5db3a1b52a5789a6b562eb48268842d113dbfe860b6f86e5f5958284896133816106eb565b613389611a8a565b6040805195865260208601949094528484019290925260608401526080830152519081900360a00190a2505050505050565b6000613139847f000000000000000000000000000000000000000000000000000000000000000073ffffffffffffffffffffffffffffffffffffffff1663ad5c46486040518163ffffffff1660e01b815260040160206040518083038186803b15801561342757600080fd5b505afa15801561343b573d6000803e3d6000fd5b505050506040513d602081101561345157600080fd5b50518585613e82565b600080600090506000807f000000000000000000000000000000000000000000000000000000000000000073ffffffffffffffffffffffffffffffffffffffff16630261bf8b6040518163ffffffff1660e01b815260040160206040518083038186803b1580156134ca57600080fd5b505afa1580156134de573d6000803e3d6000fd5b505050506040513d60208110156134f457600080fd5b5051600954604080517f69328dec00000000000000000000000000000000000000000000000000000000815273ffffffffffffffffffffffffffffffffffffffff9283166004820152602481018a90523060448201529051929350908316916369328dec916064808201926020929091908290030181600087803b15801561357b57600080fd5b505af115801561358f573d6000803e3d6000fd5b505050506040513d60208110156135a557600080fd5b50516009549092506135cf90839073ffffffffffffffffffffffffffffffffffffffff168761268c565b9695505050505050565b60008183613642576040517f08c379a000000000000000000000000000000000000000000000000000000000815260206004820181815283516024840152835190928392604490910191908501908083836000831561253a578181015183820152602001612522565b50600083858161364e57fe5b0495945050505050565b60606136ba826040518060400160405280602081526020017f5361666545524332303a206c6f772d6c6576656c2063616c6c206661696c65648152508573ffffffffffffffffffffffffffffffffffffffff166143759092919063ffffffff16565b8051909150156115db578080602001905160208110156136d957600080fd5b50516115db576040517f08c379a000000000000000000000000000000000000000000000000000000000815260040180806020018281038252602a815260200180614779602a913960400191505060405180910390fd5b8015806137dc5750604080517fdd62ed3e00000000000000000000000000000000000000000000000000000000815230600482015273ffffffffffffffffffffffffffffffffffffffff848116602483015291519185169163dd62ed3e91604480820192602092909190829003018186803b1580156137ae57600080fd5b505afa1580156137c2573d6000803e3d6000fd5b505050506040513d60208110156137d857600080fd5b5051155b613831576040517f08c379a00000000000000000000000000000000000000000000000000000000081526004018080602001828103825260368152602001806147a36036913960400191505060405180910390fd5b6040805173ffffffffffffffffffffffffffffffffffffffff8416602482015260448082018490528251808303909101815260649091019091526020810180517bffffffffffffffffffffffffffffffffffffffffffffffffffffffff167f095ea7b3000000000000000000000000000000000000000000000000000000001790526115db908490613658565b60007f000000000000000000000000000000000000000000000000000000000000000073ffffffffffffffffffffffffffffffffffffffff1663ad5c46486040518163ffffffff1660e01b815260040160206040518083038186803b15801561392657600080fd5b505afa15801561393a573d6000803e3d6000fd5b505050506040513d602081101561395057600080fd5b505173ffffffffffffffffffffffffffffffffffffffff84811691161480613976575083155b156139825750826108ff565b60408051600280825260608083018452926020830190803683370190505090507f000000000000000000000000000000000000000000000000000000000000000073ffffffffffffffffffffffffffffffffffffffff1663ad5c46486040518163ffffffff1660e01b815260040160206040518083038186803b158015613a0857600080fd5b505afa158015613a1c573d6000803e3d6000fd5b505050506040513d6020811015613a3257600080fd5b505181518290600090613a4157fe5b602002602001019073ffffffffffffffffffffffffffffffffffffffff16908173ffffffffffffffffffffffffffffffffffffffff16815250508381600181518110613a8957fe5b602002602001019073ffffffffffffffffffffffffffffffffffffffff16908173ffffffffffffffffffffffffffffffffffffffff1681525050613ad3816000815181106128a357fe5b604080517fd06ca61f000000000000000000000000000000000000000000000000000000008152600481018781526024820192835283516044830152835160009373ffffffffffffffffffffffffffffffffffffffff7f0000000000000000000000000000000000000000000000000000000000000000169363d06ca61f938b938893919260640190602080860191028083838c5b83811015613b80578181015183820152602001613b68565b50505050905001935050505060006040518083038186803b158015613ba457600080fd5b505afa158015613bb8573d6000803e3d6000fd5b505050506040513d6000823e601f3d9081017fffffffffffffffffffffffffffffffffffffffffffffffffffffffffffffffe01682016040526020811015613bff57600080fd5b8101908080516040519392919084640100000000821115613c1f57600080fd5b908301906020820185811115613c3457600080fd5b8251866020820283011164010000000082111715613c5157600080fd5b82525081516020918201928201910280838360005b83811015613c7e578181015183820152602001613c66565b50505050905001604052505050600181518110613c9757fe5b602002602001015190507f000000000000000000000000000000000000000000000000000000000000000073ffffffffffffffffffffffffffffffffffffffff166338ed173987838530896040518663ffffffff1660e01b815260040180868152602001858152602001806020018473ffffffffffffffffffffffffffffffffffffffff1681526020018363ffffffff168152602001828103825285818151815260200191508051906020019060200280838360005b83811015613d65578181015183820152602001613d4d565b505050509050019650505050505050600060405180830381600087803b158015613d8e57600080fd5b505af1158015613da2573d6000803e3d6000fd5b505050506040513d6000823e601f3d9081017fffffffffffffffffffffffffffffffffffffffffffffffffffffffffffffffe01682016040526020811015613de957600080fd5b8101908080516040519392919084640100000000821115613e0957600080fd5b908301906020820185811115613e1e57600080fd5b8251866020820283011164010000000082111715613e3b57600080fd5b82525081516020918201928201910280838360005b83811015613e68578181015183820152602001613e50565b505050509050016040525050505080925050509392505050565b60408051600280825260608083018452600093909291906020830190803683370190505090508481600081518110613eb657fe5b602002602001019073ffffffffffffffffffffffffffffffffffffffff16908173ffffffffffffffffffffffffffffffffffffffff16815250508381600181518110613efe57fe5b602002602001019073ffffffffffffffffffffffffffffffffffffffff16908173ffffffffffffffffffffffffffffffffffffffff168152505080600181518110613f4557fe5b602002602001015173ffffffffffffffffffffffffffffffffffffffff1681600081518110613f7057fe5b602002602001015173ffffffffffffffffffffffffffffffffffffffff161480613f98575085155b15613fa65785915050613139565b604080517fd06ca61f000000000000000000000000000000000000000000000000000000008152600481018881526024820192835283516044830152835160009373ffffffffffffffffffffffffffffffffffffffff7f0000000000000000000000000000000000000000000000000000000000000000169363d06ca61f938c938893919260640190602080860191028083838c5b8381101561405357818101518382015260200161403b565b50505050905001935050505060006040518083038186803b15801561407757600080fd5b505afa15801561408b573d6000803e3d6000fd5b505050506040513d6000823e601f3d9081017fffffffffffffffffffffffffffffffffffffffffffffffffffffffffffffffe016820160405260208110156140d257600080fd5b81019080805160405193929190846401000000008211156140f257600080fd5b90830190602082018581111561410757600080fd5b825186602082028301116401000000008211171561412457600080fd5b82525081516020918201928201910280838360005b83811015614151578181015183820152602001614139565b5050505090500160405250505060018151811061416a57fe5b6020026020010151905083156141955761418c6103e5610854836103e8612247565b92505050613139565b91506131399050565b73ffffffffffffffffffffffffffffffffffffffff821661420a576040517f08c379a000000000000000000000000000000000000000000000000000000000815260040180806020018281038252602181526020018061470f6021913960400191505060405180910390fd5b614216826000836115db565b614260816040518060600160405280602281526020016145b16022913973ffffffffffffffffffffffffffffffffffffffff851660009081526020819052604090205491906124cc565b73ffffffffffffffffffffffffffffffffffffffff83166000908152602081905260409020556002546142939082612ee5565b60025560408051828152905160009173ffffffffffffffffffffffffffffffffffffffff8516917fddf252ad1be2c89b69c2b068fc378daa952ba7f163c4a11628f55a4df523b3ef9181900360200190a35050565b6040805173ffffffffffffffffffffffffffffffffffffffff8416602482015260448082018490528251808303909101815260649091019091526020810180517bffffffffffffffffffffffffffffffffffffffffffffffffffffffff167fa9059cbb000000000000000000000000000000000000000000000000000000001790526115db908490613658565b6060613139848460008585614389856144e0565b6143f457604080517f08c379a000000000000000000000000000000000000000000000000000000000815260206004820152601d60248201527f416464726573733a2063616c6c20746f206e6f6e2d636f6e7472616374000000604482015290519081900360640190fd5b600060608673ffffffffffffffffffffffffffffffffffffffff1685876040518082805190602001908083835b6020831061445e57805182527fffffffffffffffffffffffffffffffffffffffffffffffffffffffffffffffe09092019160209182019101614421565b6001836020036101000a03801982511681845116808217855250505050505090500191505060006040518083038185875af1925050503d80600081146144c0576040519150601f19603f3d011682016040523d82523d6000602084013e6144c5565b606091505b50915091506144d58282866144e6565b979650505050505050565b3b151590565b606083156144f55750816108ff565b8251156145055782518084602001fd5b6040517f08c379a000000000000000000000000000000000000000000000000000000000815260206004820181815284516024840152845185939192839260440191908501908083836000831561253a57818101518382015260200161252256fe417474656d7074656420746f206465706f736974206d6f7265207468616e2062616c616e63652e45524332303a207472616e7366657220746f20746865207a65726f206164647265737345524332303a206275726e20616d6f756e7420657863656564732062616c616e63654f776e61626c653a206e6577206f776e657220697320746865207a65726f206164647265737345524332303a20617070726f766520746f20746865207a65726f2061646472657373417474656d707420746f207365742070657263656e7461676520686967686572207468616e2032252e45524332303a207472616e7366657220616d6f756e7420657863656564732062616c616e6365417474656d707420746f207769746864726177206d6f7265207468616e2031303025206f6620746865206173736574536166654d6174683a206d756c7469706c69636174696f6e206f766572666c6f7745524332303a207472616e7366657220616d6f756e74206578636565647320616c6c6f77616e6365417474656d707420746f207769746864726177206d6f7265207468616e2075736572277320686f6c64696e672e45524332303a206275726e2066726f6d20746865207a65726f206164647265737345524332303a207472616e736665722066726f6d20746865207a65726f206164647265737345524332303a20617070726f76652066726f6d20746865207a65726f20616464726573735361666545524332303a204552433230206f7065726174696f6e20646964206e6f7420737563636565645361666545524332303a20617070726f76652066726f6d206e6f6e2d7a65726f20746f206e6f6e2d7a65726f20616c6c6f77616e6365436f6e7472616374206973206e6f7420616c6c6f77656420746f207370656e6420757365722773204452432e45524332303a2064656372656173656420616c6c6f77616e63652062656c6f77207a65726fa2646970667358221220209c330dc24ae90638ffe536cf8245eb1b9e7f9e5723eb88401e2a8ef5e5592464736f6c634300060c0033",
  "immutableReferences": {
    "89": [
      {
        "length": 32,
        "start": 3797
      },
      {
        "length": 32,
        "start": 4072
      },
      {
        "length": 32,
        "start": 9872
      },
      {
        "length": 32,
        "start": 10170
      },
      {
        "length": 32,
        "start": 10413
      },
      {
        "length": 32,
        "start": 10538
      },
      {
        "length": 32,
        "start": 11228
      },
      {
        "length": 32,
        "start": 12618
      },
      {
        "length": 32,
        "start": 12982
      },
      {
        "length": 32,
        "start": 13251
      },
      {
        "length": 32,
        "start": 14530
      },
      {
        "length": 32,
        "start": 14756
      },
      {
        "length": 32,
        "start": 15147
      },
      {
        "length": 32,
        "start": 15523
      },
      {
        "length": 32,
        "start": 16382
      }
    ],
    "91": [
      {
        "length": 32,
        "start": 1799
      },
      {
        "length": 32,
        "start": 3184
      },
      {
        "length": 32,
        "start": 11644
      },
      {
        "length": 32,
        "start": 11686
      },
      {
        "length": 32,
        "start": 13414
      }
    ],
    "93": [
      {
        "length": 32,
        "start": 7619
      }
    ]
  },
  "source": "// SPDX-License-Identifier: AGPL-3.0-or-later\r\n\r\npragma solidity =0.6.12;\r\n\r\nimport \"@openzeppelin/contracts/access/Ownable.sol\";\r\nimport \"@openzeppelin/contracts/math/SafeMath.sol\";\r\nimport \"@openzeppelin/contracts/token/ERC20/ERC20.sol\";\r\nimport \"@openzeppelin/contracts/token/ERC20/SafeERC20.sol\";\r\nimport \"@openzeppelin/contracts/utils/ReentrancyGuard.sol\";\r\n\r\nimport \"./interfaces/Uniswap/IUniswapV2Factory.sol\";\r\nimport \"./interfaces/Uniswap/IUniswapV2Pair.sol\";\r\nimport \"./interfaces/Uniswap/IUniswapV2Router02.sol\";\r\n\r\nimport \"./interfaces/AAVE/ILendingPoolAddressesProvider.sol\";\r\nimport \"./interfaces/AAVE/ILendingPool.sol\";\r\nimport \"./interfaces/AAVE/IProtocolDataProvider.sol\";\r\n\r\nimport \"./interfaces/IDigitalReserve.sol\";\r\n\r\n/**\r\n * @dev Implementation of Digital Reserve contract.\r\n * Digital Reserve contract converts user's DRC into a set of SoV assets using the Uniswap router,\r\n * and hold these assets for it's users.\r\n * When users initiate a withdrawal action, the contract converts a share of the vault,\r\n * that the user is requesting, to DRC and sends it back to their wallet.\r\n */\r\ncontract DigitalReserve is IDigitalReserve, ERC20, Ownable {\r\n    using SafeMath for uint256;\r\n\r\n    /**\r\n     * @dev Set Uniswap router address, DRC token address, DR name.\r\n     * @param _router Uniswap V2 router address.\r\n     * @param _aaveRouter AAVE Contract address.\r\n     * @param _drcAddress DRC token address,\r\n     * @param _name DR POD token name\r\n     * @param _symbol DR POD token symbol\r\n     */\r\n    constructor(\r\n        address _router,\r\n        address _aaveRouter,\r\n        address _aaveProtocol,\r\n        address _drcAddress,\r\n        string memory _name,\r\n        string memory _symbol\r\n    ) public ERC20(_name, _symbol) {\r\n        drcAddress = _drcAddress;\r\n        uniswapRouter = IUniswapV2Router02(_router);\r\n        aaveLendingPool = ILendingPoolAddressesProvider(_aaveRouter);\r\n        aaveProtocol = IProtocolDataProvider(_aaveProtocol);\r\n    }\r\n\r\n    uint8 private _feeFraction = 1;\r\n    uint8 private _feeBase = 100;\r\n    uint8 private constant _priceDecimals = 18;\r\n    uint256 private _tokenPercentage = 100;\r\n\r\n    address private drcAddress;\r\n    address private _aUSDCAddress;\r\n    address private _usdcToken;\r\n\r\n    bool private depositEnabled = false;\r\n\r\n    IUniswapV2Router02 private immutable uniswapRouter;\r\n    ILendingPoolAddressesProvider private immutable aaveLendingPool;\r\n    IProtocolDataProvider private immutable aaveProtocol;\r\n\r\n    /**\r\n     * @dev See {IDigitalReserve-withdrawalFee}.\r\n     */\r\n    function withdrawalFee() external view override returns (uint8, uint8) {\r\n        return (_feeFraction, _feeBase);\r\n    }\r\n\r\n    /**\r\n     * @dev See {IDigitalReserve-priceDecimals}.\r\n     */\r\n    function priceDecimals() external view override returns (uint8) {\r\n        return _priceDecimals;\r\n    }\r\n\r\n    /**\r\n     * @dev See {IDigitalReserve-totalTokenStored}.\r\n     */\r\n    function totalTokenStored() public view override returns (uint256) {\r\n        require(_aUSDCAddress != address(0x00), \"aUSDC address must be set.\");\r\n        uint256 amounts = 0;\r\n        amounts = IERC20(_aUSDCAddress).balanceOf(address(this));\r\n        return amounts;\r\n    }\r\n\r\n    /**\r\n     * @dev See {IDigitalReserve-getUserVaultInDrc}.\r\n     */\r\n    function getUserVaultInDrc(\r\n        address user\r\n    ) public view override returns (uint256, uint256, uint256) {\r\n        uint256 userStrategyTokens = _getStrategyTokensByPodAmount(balanceOf(user));\r\n        uint256 userVaultWorthInEth = _getEthAmountByTokenAmount(userStrategyTokens, _usdcToken, true);\r\n        uint256 userVaultWorthInEthAfterSwap = _getEthAmountByTokenAmount(userStrategyTokens, _usdcToken, false);\r\n\r\n        uint256 drcAmountBeforeFees = _getTokenAmountByEthAmount(userVaultWorthInEth, drcAddress, true);\r\n\r\n        uint256 fees = userVaultWorthInEthAfterSwap.mul(_feeFraction).div(_feeBase + _feeFraction);\r\n        uint256 drcAmountAfterFees = _getTokenAmountByEthAmount(userVaultWorthInEthAfterSwap.sub(fees), drcAddress, false);\r\n\r\n        return (drcAmountBeforeFees, drcAmountAfterFees, fees);\r\n    }\r\n\r\n    /**\r\n     * @dev See {IDigitalReserve-getProofOfDepositPrice}.\r\n     */\r\n    function getProofOfDepositPrice() public view override returns (uint256) {\r\n        uint256 proofOfDepositPrice = 0;\r\n        if (totalSupply() > 0) {\r\n            ILendingPool lendingPool = ILendingPool(aaveLendingPool.getLendingPool());\r\n            (uint256 vaultTotalInEth, , , , , ) = lendingPool.getUserAccountData(address(this));\r\n\r\n            proofOfDepositPrice = vaultTotalInEth.mul(1e18).div(totalSupply());\r\n        }\r\n        return proofOfDepositPrice;\r\n    }\r\n\r\n    /**\r\n     * @dev See {IDigitalReserve-depositDrc}.\r\n     */\r\n    function depositDrc(uint256 drcAmount, uint32 deadline) external override {\r\n        require(depositEnabled, \"Deposit is disabled.\");\r\n        require(IERC20(drcAddress).allowance(msg.sender, address(this)) >= drcAmount, \"Contract is not allowed to spend user's DRC.\");\r\n        require(IERC20(drcAddress).balanceOf(msg.sender) >= drcAmount, \"Attempted to deposit more than balance.\");\r\n\r\n        SafeERC20.safeTransferFrom(IERC20(drcAddress), msg.sender, address(this), drcAmount);\r\n\r\n        // Get current unit price before adding tokens to vault\r\n        uint256 currentPodUnitPrice = getProofOfDepositPrice();\r\n\r\n        uint256 ethConverted = _convertTokenToEth(drcAmount, drcAddress, deadline);\r\n        _convertEthToStrategyTokens(ethConverted, deadline);\r\n\r\n        uint256 podToMint = 0;\r\n        if (totalSupply() == 0) {\r\n            podToMint = drcAmount.mul(1e15);\r\n        } else {\r\n            ILendingPool lendingPool = ILendingPool(aaveLendingPool.getLendingPool());\r\n            (uint256 vaultTotalInEth, , , , , ) = lendingPool.getUserAccountData(address(this));\r\n            uint256 newPodTotal = vaultTotalInEth.mul(1e18).div(currentPodUnitPrice);\r\n            podToMint = newPodTotal.sub(totalSupply());\r\n        }\r\n\r\n        _mint(msg.sender, podToMint);\r\n\r\n        emit Deposit(msg.sender, drcAmount, podToMint, totalSupply(), totalTokenStored());\r\n    }\r\n\r\n\r\n\r\n    /**\r\n     * @dev See {IDigitalReserve-withdrawDrc}.\r\n     */\r\n    function withdrawDrc(uint256 drcAmount, uint32 deadline) external override {\r\n        require(balanceOf(msg.sender) > 0, \"Vault balance is 0\");\r\n        \r\n        address[] memory path = new address[](2);\r\n        path[0] = uniswapRouter.WETH();\r\n        path[1] = drcAddress;\r\n\r\n        uint256 ethNeeded = uniswapRouter.getAmountsIn(drcAmount, path)[0];\r\n        uint256 ethNeededPlusFee = ethNeeded.mul(_feeBase + _feeFraction).div(_feeBase);\r\n\r\n        uint256 userStrategyTokens = _getStrategyTokensByPodAmount(balanceOf(msg.sender));\r\n\r\n        uint256 userVaultWorth = _getEthAmountByTokenAmount(userStrategyTokens, _usdcToken, false);\r\n\r\n        require(userVaultWorth >= ethNeededPlusFee, \"Attempt to withdraw more than user's holding.\");\r\n\r\n        uint256 amountFraction = ethNeededPlusFee.mul(1e10).div(userVaultWorth);\r\n        uint256 podToBurn = balanceOf(msg.sender).mul(amountFraction).div(1e10);\r\n\r\n        _withdrawProofOfDeposit(podToBurn, deadline);\r\n    }\r\n\r\n    /**\r\n     * @dev See {IDigitalReserve-withdrawPercentage}.\r\n     */\r\n    function withdrawPercentage(uint8 percentage, uint32 deadline) external override {\r\n        require(balanceOf(msg.sender) > 0, \"Vault balance is 0\");\r\n        require(percentage <= 100, \"Attempt to withdraw more than 100% of the asset\");\r\n\r\n        uint256 podToBurn = balanceOf(msg.sender).mul(percentage).div(100);\r\n        _withdrawProofOfDeposit(podToBurn, deadline);\r\n    }\r\n\r\n    /**\r\n     * @dev Enable or disable deposit.\r\n     * @param status Deposit allowed or not\r\n     * Disable deposit if it is to protect users' fund if there's any security issue or assist DR upgrade.\r\n     */\r\n    function changeDepositStatus(bool status) external onlyOwner {\r\n        depositEnabled = status;\r\n    }\r\n\r\n    /**\r\n     * @dev Change withdrawal fee percentage.\r\n     * If 1%, then input (1,100)\r\n     * If 0.5%, then input (5,1000)\r\n     * @param withdrawalFeeFraction_ Fraction of withdrawal fee based on withdrawalFeeBase_\r\n     * @param withdrawalFeeBase_ Fraction of withdrawal fee base\r\n     */\r\n    function changeFee(uint8 withdrawalFeeFraction_, uint8 withdrawalFeeBase_) external onlyOwner {\r\n        require(withdrawalFeeFraction_ <= withdrawalFeeBase_, \"Fee fraction exceeded base.\");\r\n        uint8 percentage = (withdrawalFeeFraction_ * 100) / withdrawalFeeBase_;\r\n        require(percentage <= 2, \"Attempt to set percentage higher than 2%.\"); // Requested by community\r\n\r\n        _feeFraction = withdrawalFeeFraction_;\r\n        _feeBase = withdrawalFeeBase_;\r\n    }\r\n\r\n    /**\r\n     * @dev Set or change DR strategy tokens and allocations.\r\n     * @param usdcToken_ strategy token address.\r\n     * @param deadline Unix timestamp after which the transaction will revert.\r\n     */\r\n    function setTokenAddress(\r\n        address usdcToken_,\r\n        uint32 deadline\r\n    ) external onlyOwner {\r\n        require(usdcToken_ != address(0x00), \"USDC address must be set.\");\r\n\r\n        address oldUSDCTokens;\r\n        address oldaUSDCTokens;\r\n        uint256 ethConverted = 0;\r\n\r\n        if(_usdcToken != address(0x00) && _aUSDCAddress != address(0x00)){\r\n            oldUSDCTokens = _usdcToken;\r\n            oldaUSDCTokens = _aUSDCAddress;\r\n            // Before mutate strategyTokens, convert current strategy tokens to ETH\r\n            ethConverted = _convertStrategyTokensToEth(totalTokenStored(), deadline);\r\n        }\r\n\r\n        _usdcToken = usdcToken_;\r\n        (_aUSDCAddress, , ) = aaveProtocol.getReserveTokensAddresses(usdcToken_);\r\n        \r\n        if(ethConverted != 0){\r\n            _convertEthToStrategyTokens(ethConverted, deadline);\r\n        }\r\n\r\n        emit SetToken(oldUSDCTokens, oldaUSDCTokens, _usdcToken, _aUSDCAddress, totalTokenStored());\r\n    }\r\n\r\n    /**\r\n     * @dev Withdraw DRC by DR-POD amount to burn.\r\n     * @param podToBurn Amount of DR-POD to burn in exchange for DRC.\r\n     * @param deadline Unix timestamp after which the transaction will revert.\r\n     */\r\n    function _withdrawProofOfDeposit(uint256 podToBurn, uint32 deadline) private {\r\n        uint256 strategyTokensToWithdraw = _getStrategyTokensByPodAmount(podToBurn);\r\n\r\n        _burn(msg.sender, podToBurn);\r\n\r\n        uint256 ethConverted = _convertStrategyTokensToEth(strategyTokensToWithdraw, deadline);\r\n        uint256 fees = ethConverted.mul(_feeFraction).div(_feeBase + _feeFraction);\r\n\r\n        uint256 drcAmount = _convertEthToToken(ethConverted.sub(fees), drcAddress, deadline);\r\n\r\n        SafeERC20.safeTransfer(IERC20(drcAddress), msg.sender, drcAmount);\r\n        SafeERC20.safeTransfer(IERC20(uniswapRouter.WETH()), owner(), fees);\r\n\r\n        emit Withdraw(msg.sender, drcAmount, fees, podToBurn, totalSupply(), totalTokenStored());\r\n    }\r\n\r\n    /**\r\n     * @dev Get ETH worth of a certain amount of a token.\r\n     * @param _amount Amount of token to convert.\r\n     * @param _fromAddress Address of token to convert from.\r\n     * @param _toAddress Address of token to convert to.\r\n     * @param excludeFees If uniswap fees is considered.\r\n     */\r\n    function _getAAmountByBAmount(\r\n        uint256 _amount,\r\n        address _fromAddress,\r\n        address _toAddress,\r\n        bool excludeFees\r\n    ) private view returns (uint256) {\r\n        address[] memory path = new address[](2);\r\n        path[0] = _fromAddress;\r\n        path[1] = _toAddress;\r\n\r\n        if (path[0] == path[1] || _amount == 0) {\r\n            return _amount;\r\n        }\r\n\r\n        uint256 amountOut = uniswapRouter.getAmountsOut(_amount, path)[1];\r\n\r\n        if (excludeFees) {\r\n            return amountOut.mul(1000).div(997);\r\n        } else {\r\n            return amountOut;\r\n        }\r\n    }\r\n\r\n    /**\r\n     * @dev Get the worth in a token of a certain amount of ETH.\r\n     * @param _amount Amount of ETH to convert.\r\n     * @param _tokenAddress Address of the token to convert to.\r\n     * @param excludeFees If uniswap fees is considered.\r\n     */\r\n    function _getTokenAmountByEthAmount(\r\n        uint256 _amount,\r\n        address _tokenAddress,\r\n        bool excludeFees\r\n    ) private view returns (uint256) {\r\n        return _getAAmountByBAmount(_amount, uniswapRouter.WETH(), _tokenAddress, excludeFees);\r\n    }\r\n\r\n    /**\r\n     * @dev Get ETH worth of a certain amount of a token.\r\n     * @param _amount Amount of token to convert.\r\n     * @param _tokenAddress Address of token to convert from.\r\n     * @param excludeFees If uniswap fees is considered.\r\n     */\r\n    function _getEthAmountByTokenAmount(\r\n        uint256 _amount,\r\n        address _tokenAddress,\r\n        bool excludeFees\r\n    ) private view returns (uint256) {\r\n        return _getAAmountByBAmount(_amount, _tokenAddress, uniswapRouter.WETH(), excludeFees);\r\n    }\r\n\r\n    /**\r\n     * @dev Get DR-POD worth in an array of strategy tokens.\r\n     * @param _amount Amount of DR-POD to convert.\r\n     */\r\n    function _getStrategyTokensByPodAmount(uint256 _amount) private view returns (uint256) {\r\n        uint256 strategyTokenAmount = 0;\r\n\r\n        uint256 podFraction = 0;\r\n        if(totalSupply() > 0){\r\n            podFraction = _amount.mul(1e10).div(totalSupply());\r\n        }\r\n        strategyTokenAmount = IERC20(_aUSDCAddress).balanceOf(address(this)).mul(podFraction).div(1e10);\r\n        return strategyTokenAmount;\r\n    }\r\n\r\n    /**\r\n     * @dev Convert a token to WETH via the Uniswap router.\r\n     * @param _amount Amount of tokens to swap.\r\n     * @param _tokenAddress Address of token to swap.\r\n     * @param deadline Unix timestamp after which the transaction will revert.\r\n     */\r\n    function _convertTokenToEth(\r\n        uint256 _amount,\r\n        address _tokenAddress,\r\n        uint32 deadline\r\n    ) private returns (uint256) {\r\n        if (_tokenAddress == uniswapRouter.WETH() || _amount == 0) {\r\n            return _amount;\r\n        }\r\n        address[] memory path = new address[](2);\r\n        path[0] = _tokenAddress;\r\n        path[1] = uniswapRouter.WETH();\r\n\r\n        SafeERC20.safeApprove(IERC20(path[0]), address(uniswapRouter), _amount);\r\n        \r\n        uint256 amountOut = uniswapRouter.getAmountsOut(_amount, path)[1];\r\n        uint256 amountOutWithFeeTolerance = amountOut.mul(999).div(1000);\r\n        uint256 ethBeforeSwap = IERC20(path[1]).balanceOf(address(this));\r\n        uniswapRouter.swapExactTokensForTokensSupportingFeeOnTransferTokens(_amount, amountOutWithFeeTolerance, path, address(this), deadline);\r\n        uint256 ethAfterSwap = IERC20(path[1]).balanceOf(address(this));\r\n        return ethAfterSwap - ethBeforeSwap;\r\n    }\r\n\r\n    /**\r\n     * @dev Convert ETH to another token via the Uniswap router.\r\n     * @param _amount Amount of WETH to swap.\r\n     * @param _tokenAddress Address of token to swap to.\r\n     * @param deadline Unix timestamp after which the transaction will revert.\r\n     */\r\n    function _convertEthToToken(\r\n        uint256 _amount,\r\n        address _tokenAddress,\r\n        uint32 deadline\r\n    ) private returns (uint256) {\r\n        if (_tokenAddress == uniswapRouter.WETH() || _amount == 0) {\r\n            return _amount;\r\n        }\r\n        address[] memory path = new address[](2);\r\n        path[0] = uniswapRouter.WETH();\r\n        path[1] = _tokenAddress;\r\n        SafeERC20.safeApprove(IERC20(path[0]), address(uniswapRouter), _amount);\r\n        uint256 amountOut = uniswapRouter.getAmountsOut(_amount, path)[1];\r\n        uniswapRouter.swapExactTokensForTokens(_amount, amountOut, path, address(this), deadline);\r\n        return amountOut;\r\n    }\r\n\r\n    /**\r\n     * @dev Convert ETH to strategy tokens of DR in their allocation percentage.\r\n     * @param amount Amount of WETH to swap.\r\n     * @param deadline Unix timestamp after which the transaction will revert.\r\n     */\r\n    function _convertEthToStrategyTokens(\r\n        uint256 amount, \r\n        uint32 deadline\r\n    ) private returns (uint256) {\r\n        uint256 EthToTokenAmount = _convertEthToToken(amount, _usdcToken, deadline);\r\n\r\n        SafeERC20.safeApprove(IERC20(_usdcToken), address(aaveLendingPool), amount);\r\n\r\n        uint16 referralCode = 0;\r\n        ILendingPool lendingPool = ILendingPool(aaveLendingPool.getLendingPool());\r\n        lendingPool.deposit(_usdcToken, EthToTokenAmount, address(this), referralCode);\r\n    }\r\n\r\n    /**\r\n     * @dev Convert strategy tokens to WETH.\r\n     * @param amountToConvert Array of the amounts of strategy tokens to swap.\r\n     * @param deadline Unix timestamp after which the transaction will revert.\r\n     */\r\n    function _convertStrategyTokensToEth(\r\n        uint256 amountToConvert, \r\n        uint32 deadline\r\n    ) private returns (uint256) {\r\n        uint256 ethConverted = 0;\r\n\r\n        uint256 getUSDC = 0;\r\n        ILendingPool lendingPool = ILendingPool(aaveLendingPool.getLendingPool());\r\n        getUSDC = lendingPool.withdraw(_usdcToken, amountToConvert, address(this));\r\n\r\n        ethConverted = _convertTokenToEth(getUSDC, _usdcToken, deadline);\r\n        return ethConverted;\r\n    }\r\n}\r\n",
  "sourcePath": "D:/work_data/blockchain/digital-reserve/contracts/DigitalReserve.sol",
  "compiler": {
    "name": "solc",
    "version": "0.6.12+commit.27d51765.Emscripten.clang"
  },
  "schemaVersion": "3.3.3",
  "updatedAt": "2021-04-12T09:30:20.647Z",
  "devdoc": {
    "details": "Implementation of Digital Reserve contract. Digital Reserve contract converts user's DRC into a set of SoV assets using the Uniswap router, and hold these assets for it's users. When users initiate a withdrawal action, the contract converts a share of the vault, that the user is requesting, to DRC and sends it back to their wallet.",
    "kind": "dev",
    "methods": {
      "allowance(address,address)": {
        "details": "See {IERC20-allowance}."
      },
      "approve(address,uint256)": {
        "details": "See {IERC20-approve}. Requirements: - `spender` cannot be the zero address."
      },
      "balanceOf(address)": {
        "details": "See {IERC20-balanceOf}."
      },
      "changeDepositStatus(bool)": {
        "details": "Enable or disable deposit.",
        "params": {
          "status": "Deposit allowed or not Disable deposit if it is to protect users' fund if there's any security issue or assist DR upgrade."
        }
      },
      "changeFee(uint8,uint8)": {
        "details": "Change withdrawal fee percentage. If 1%, then input (1,100) If 0.5%, then input (5,1000)",
        "params": {
          "withdrawalFeeBase_": "Fraction of withdrawal fee base",
          "withdrawalFeeFraction_": "Fraction of withdrawal fee based on withdrawalFeeBase_"
        }
      },
      "constructor": {
        "details": "Set Uniswap router address, DRC token address, DR name.",
        "params": {
          "_aaveRouter": "AAVE Contract address.",
          "_drcAddress": "DRC token address,",
          "_name": "DR POD token name",
          "_router": "Uniswap V2 router address.",
          "_symbol": "DR POD token symbol"
        }
      },
      "decimals()": {
        "details": "Returns the number of decimals used to get its user representation. For example, if `decimals` equals `2`, a balance of `505` tokens should be displayed to a user as `5,05` (`505 / 10 ** 2`). Tokens usually opt for a value of 18, imitating the relationship between Ether and Wei. This is the value {ERC20} uses, unless {_setupDecimals} is called. NOTE: This information is only used for _display_ purposes: it in no way affects any of the arithmetic of the contract, including {IERC20-balanceOf} and {IERC20-transfer}."
      },
      "decreaseAllowance(address,uint256)": {
        "details": "Atomically decreases the allowance granted to `spender` by the caller. This is an alternative to {approve} that can be used as a mitigation for problems described in {IERC20-approve}. Emits an {Approval} event indicating the updated allowance. Requirements: - `spender` cannot be the zero address. - `spender` must have allowance for the caller of at least `subtractedValue`."
      },
      "depositDrc(uint256,uint32)": {
        "details": "See {IDigitalReserve-depositDrc}."
      },
      "getProofOfDepositPrice()": {
        "details": "See {IDigitalReserve-getProofOfDepositPrice}."
      },
      "getUserVaultInDrc(address)": {
        "details": "See {IDigitalReserve-getUserVaultInDrc}."
      },
      "increaseAllowance(address,uint256)": {
        "details": "Atomically increases the allowance granted to `spender` by the caller. This is an alternative to {approve} that can be used as a mitigation for problems described in {IERC20-approve}. Emits an {Approval} event indicating the updated allowance. Requirements: - `spender` cannot be the zero address."
      },
      "name()": {
        "details": "Returns the name of the token."
      },
      "owner()": {
        "details": "Returns the address of the current owner."
      },
      "priceDecimals()": {
        "details": "See {IDigitalReserve-priceDecimals}."
      },
      "renounceOwnership()": {
        "details": "Leaves the contract without owner. It will not be possible to call `onlyOwner` functions anymore. Can only be called by the current owner. NOTE: Renouncing ownership will leave the contract without an owner, thereby removing any functionality that is only available to the owner."
      },
      "setTokenAddress(address,uint32)": {
        "details": "Set or change DR strategy tokens and allocations.",
        "params": {
          "deadline": "Unix timestamp after which the transaction will revert.",
          "usdcToken_": "strategy token address."
        }
      },
      "symbol()": {
        "details": "Returns the symbol of the token, usually a shorter version of the name."
      },
      "totalSupply()": {
        "details": "See {IERC20-totalSupply}."
      },
      "totalTokenStored()": {
        "details": "See {IDigitalReserve-totalTokenStored}."
      },
      "transfer(address,uint256)": {
        "details": "See {IERC20-transfer}. Requirements: - `recipient` cannot be the zero address. - the caller must have a balance of at least `amount`."
      },
      "transferFrom(address,address,uint256)": {
        "details": "See {IERC20-transferFrom}. Emits an {Approval} event indicating the updated allowance. This is not required by the EIP. See the note at the beginning of {ERC20}. Requirements: - `sender` and `recipient` cannot be the zero address. - `sender` must have a balance of at least `amount`. - the caller must have allowance for ``sender``'s tokens of at least `amount`."
      },
      "transferOwnership(address)": {
        "details": "Transfers ownership of the contract to a new account (`newOwner`). Can only be called by the current owner."
      },
      "withdrawDrc(uint256,uint32)": {
        "details": "See {IDigitalReserve-withdrawDrc}."
      },
      "withdrawPercentage(uint8,uint32)": {
        "details": "See {IDigitalReserve-withdrawPercentage}."
      },
      "withdrawalFee()": {
        "details": "See {IDigitalReserve-withdrawalFee}."
      }
    },
    "version": 1
  },
  "userdoc": {
    "kind": "user",
    "methods": {},
    "version": 1
  }
}