{
  "contractName": "DigitalReserve",
  "abi": [
    {
      "inputs": [
        {
          "internalType": "address",
          "name": "_router",
          "type": "address"
        },
        {
          "internalType": "address",
          "name": "_lendingPoolProvider",
          "type": "address"
        },
        {
          "internalType": "address",
          "name": "_protocolAddress",
          "type": "address"
        },
        {
          "internalType": "address",
          "name": "_drcAddress",
          "type": "address"
        },
        {
          "internalType": "string",
          "name": "_name",
          "type": "string"
        },
        {
          "internalType": "string",
          "name": "_symbol",
          "type": "string"
        }
      ],
      "stateMutability": "nonpayable",
      "type": "constructor"
    },
    {
      "anonymous": false,
      "inputs": [
        {
          "indexed": true,
          "internalType": "address",
          "name": "owner",
          "type": "address"
        },
        {
          "indexed": true,
          "internalType": "address",
          "name": "spender",
          "type": "address"
        },
        {
          "indexed": false,
          "internalType": "uint256",
          "name": "value",
          "type": "uint256"
        }
      ],
      "name": "Approval",
      "type": "event"
    },
    {
      "anonymous": false,
      "inputs": [
        {
          "indexed": true,
          "internalType": "address",
          "name": "user",
          "type": "address"
        },
        {
          "indexed": false,
          "internalType": "uint256",
          "name": "amount",
          "type": "uint256"
        },
        {
          "indexed": false,
          "internalType": "uint256",
          "name": "podMinted",
          "type": "uint256"
        },
        {
          "indexed": false,
          "internalType": "uint256",
          "name": "podTotalSupply",
          "type": "uint256"
        },
        {
          "indexed": false,
          "internalType": "uint256",
          "name": "tokensStored",
          "type": "uint256"
        }
      ],
      "name": "Deposit",
      "type": "event"
    },
    {
      "anonymous": false,
      "inputs": [
        {
          "indexed": true,
          "internalType": "address",
          "name": "previousOwner",
          "type": "address"
        },
        {
          "indexed": true,
          "internalType": "address",
          "name": "newOwner",
          "type": "address"
        }
      ],
      "name": "OwnershipTransferred",
      "type": "event"
    },
    {
      "anonymous": false,
      "inputs": [
        {
          "indexed": false,
          "internalType": "address",
          "name": "oldTokenA",
          "type": "address"
        },
        {
          "indexed": false,
          "internalType": "address",
          "name": "oldTokenB",
          "type": "address"
        },
        {
          "indexed": false,
          "internalType": "address",
          "name": "newTokenA",
          "type": "address"
        },
        {
          "indexed": false,
          "internalType": "address",
          "name": "newTokenB",
          "type": "address"
        },
        {
          "indexed": false,
          "internalType": "uint256",
          "name": "tokensStored",
          "type": "uint256"
        }
      ],
      "name": "SetToken",
      "type": "event"
    },
    {
      "anonymous": false,
      "inputs": [
        {
          "indexed": true,
          "internalType": "address",
          "name": "from",
          "type": "address"
        },
        {
          "indexed": true,
          "internalType": "address",
          "name": "to",
          "type": "address"
        },
        {
          "indexed": false,
          "internalType": "uint256",
          "name": "value",
          "type": "uint256"
        }
      ],
      "name": "Transfer",
      "type": "event"
    },
    {
      "anonymous": false,
      "inputs": [
        {
          "indexed": true,
          "internalType": "address",
          "name": "user",
          "type": "address"
        },
        {
          "indexed": false,
          "internalType": "uint256",
          "name": "amount",
          "type": "uint256"
        },
        {
          "indexed": false,
          "internalType": "uint256",
          "name": "fees",
          "type": "uint256"
        },
        {
          "indexed": false,
          "internalType": "uint256",
          "name": "podBurned",
          "type": "uint256"
        },
        {
          "indexed": false,
          "internalType": "uint256",
          "name": "podTotalSupply",
          "type": "uint256"
        },
        {
          "indexed": false,
          "internalType": "uint256",
          "name": "tokensStored",
          "type": "uint256"
        }
      ],
      "name": "Withdraw",
      "type": "event"
    },
    {
      "inputs": [
        {
          "internalType": "address",
          "name": "owner",
          "type": "address"
        },
        {
          "internalType": "address",
          "name": "spender",
          "type": "address"
        }
      ],
      "name": "allowance",
      "outputs": [
        {
          "internalType": "uint256",
          "name": "",
          "type": "uint256"
        }
      ],
      "stateMutability": "view",
      "type": "function"
    },
    {
      "inputs": [
        {
          "internalType": "address",
          "name": "spender",
          "type": "address"
        },
        {
          "internalType": "uint256",
          "name": "amount",
          "type": "uint256"
        }
      ],
      "name": "approve",
      "outputs": [
        {
          "internalType": "bool",
          "name": "",
          "type": "bool"
        }
      ],
      "stateMutability": "nonpayable",
      "type": "function"
    },
    {
      "inputs": [
        {
          "internalType": "address",
          "name": "account",
          "type": "address"
        }
      ],
      "name": "balanceOf",
      "outputs": [
        {
          "internalType": "uint256",
          "name": "",
          "type": "uint256"
        }
      ],
      "stateMutability": "view",
      "type": "function"
    },
    {
      "inputs": [],
      "name": "decimals",
      "outputs": [
        {
          "internalType": "uint8",
          "name": "",
          "type": "uint8"
        }
      ],
      "stateMutability": "view",
      "type": "function"
    },
    {
      "inputs": [
        {
          "internalType": "address",
          "name": "spender",
          "type": "address"
        },
        {
          "internalType": "uint256",
          "name": "subtractedValue",
          "type": "uint256"
        }
      ],
      "name": "decreaseAllowance",
      "outputs": [
        {
          "internalType": "bool",
          "name": "",
          "type": "bool"
        }
      ],
      "stateMutability": "nonpayable",
      "type": "function"
    },
    {
      "inputs": [
        {
          "internalType": "address",
          "name": "spender",
          "type": "address"
        },
        {
          "internalType": "uint256",
          "name": "addedValue",
          "type": "uint256"
        }
      ],
      "name": "increaseAllowance",
      "outputs": [
        {
          "internalType": "bool",
          "name": "",
          "type": "bool"
        }
      ],
      "stateMutability": "nonpayable",
      "type": "function"
    },
    {
      "inputs": [],
      "name": "name",
      "outputs": [
        {
          "internalType": "string",
          "name": "",
          "type": "string"
        }
      ],
      "stateMutability": "view",
      "type": "function"
    },
    {
      "inputs": [],
      "name": "owner",
      "outputs": [
        {
          "internalType": "address",
          "name": "",
          "type": "address"
        }
      ],
      "stateMutability": "view",
      "type": "function"
    },
    {
      "inputs": [],
      "name": "renounceOwnership",
      "outputs": [],
      "stateMutability": "nonpayable",
      "type": "function"
    },
    {
      "inputs": [],
      "name": "symbol",
      "outputs": [
        {
          "internalType": "string",
          "name": "",
          "type": "string"
        }
      ],
      "stateMutability": "view",
      "type": "function"
    },
    {
      "inputs": [],
      "name": "totalSupply",
      "outputs": [
        {
          "internalType": "uint256",
          "name": "",
          "type": "uint256"
        }
      ],
      "stateMutability": "view",
      "type": "function"
    },
    {
      "inputs": [
        {
          "internalType": "address",
          "name": "recipient",
          "type": "address"
        },
        {
          "internalType": "uint256",
          "name": "amount",
          "type": "uint256"
        }
      ],
      "name": "transfer",
      "outputs": [
        {
          "internalType": "bool",
          "name": "",
          "type": "bool"
        }
      ],
      "stateMutability": "nonpayable",
      "type": "function"
    },
    {
      "inputs": [
        {
          "internalType": "address",
          "name": "sender",
          "type": "address"
        },
        {
          "internalType": "address",
          "name": "recipient",
          "type": "address"
        },
        {
          "internalType": "uint256",
          "name": "amount",
          "type": "uint256"
        }
      ],
      "name": "transferFrom",
      "outputs": [
        {
          "internalType": "bool",
          "name": "",
          "type": "bool"
        }
      ],
      "stateMutability": "nonpayable",
      "type": "function"
    },
    {
      "inputs": [
        {
          "internalType": "address",
          "name": "newOwner",
          "type": "address"
        }
      ],
      "name": "transferOwnership",
      "outputs": [],
      "stateMutability": "nonpayable",
      "type": "function"
    },
    {
      "inputs": [],
      "name": "withdrawalFee",
      "outputs": [
        {
          "internalType": "uint8",
          "name": "",
          "type": "uint8"
        },
        {
          "internalType": "uint8",
          "name": "",
          "type": "uint8"
        }
      ],
      "stateMutability": "view",
      "type": "function"
    },
    {
      "inputs": [],
      "name": "priceDecimals",
      "outputs": [
        {
          "internalType": "uint8",
          "name": "",
          "type": "uint8"
        }
      ],
      "stateMutability": "view",
      "type": "function"
    },
    {
      "inputs": [],
      "name": "totalTokenStored",
      "outputs": [
        {
          "internalType": "uint256",
          "name": "",
          "type": "uint256"
        }
      ],
      "stateMutability": "view",
      "type": "function"
    },
    {
      "inputs": [
        {
          "internalType": "address",
          "name": "user",
          "type": "address"
        }
      ],
      "name": "getUserVaultInDrc",
      "outputs": [
        {
          "internalType": "uint256",
          "name": "",
          "type": "uint256"
        },
        {
          "internalType": "uint256",
          "name": "",
          "type": "uint256"
        },
        {
          "internalType": "uint256",
          "name": "",
          "type": "uint256"
        }
      ],
      "stateMutability": "view",
      "type": "function"
    },
    {
      "inputs": [],
      "name": "getProofOfDepositPrice",
      "outputs": [
        {
          "internalType": "uint256",
          "name": "",
          "type": "uint256"
        }
      ],
      "stateMutability": "view",
      "type": "function"
    },
    {
      "inputs": [
        {
          "internalType": "uint256",
          "name": "drcAmount",
          "type": "uint256"
        },
        {
          "internalType": "uint32",
          "name": "deadline",
          "type": "uint32"
        }
      ],
      "name": "depositDrc",
      "outputs": [],
      "stateMutability": "nonpayable",
      "type": "function"
    },
    {
      "inputs": [
        {
          "internalType": "uint256",
          "name": "drcAmount",
          "type": "uint256"
        },
        {
          "internalType": "uint32",
          "name": "deadline",
          "type": "uint32"
        }
      ],
      "name": "withdrawDrc",
      "outputs": [],
      "stateMutability": "nonpayable",
      "type": "function"
    },
    {
      "inputs": [
        {
          "internalType": "uint8",
          "name": "percentage",
          "type": "uint8"
        },
        {
          "internalType": "uint32",
          "name": "deadline",
          "type": "uint32"
        }
      ],
      "name": "withdrawPercentage",
      "outputs": [],
      "stateMutability": "nonpayable",
      "type": "function"
    },
    {
      "inputs": [
        {
          "internalType": "bool",
          "name": "status",
          "type": "bool"
        }
      ],
      "name": "changeDepositStatus",
      "outputs": [],
      "stateMutability": "nonpayable",
      "type": "function"
    },
    {
      "inputs": [
        {
          "internalType": "uint8",
          "name": "withdrawalFeeFraction_",
          "type": "uint8"
        },
        {
          "internalType": "uint8",
          "name": "withdrawalFeeBase_",
          "type": "uint8"
        }
      ],
      "name": "changeFee",
      "outputs": [],
      "stateMutability": "nonpayable",
      "type": "function"
    },
    {
      "inputs": [
        {
          "internalType": "address",
          "name": "strategyToken_",
          "type": "address"
        },
        {
          "internalType": "uint32",
          "name": "deadline",
          "type": "uint32"
        }
      ],
      "name": "setTokenAddress",
      "outputs": [],
      "stateMutability": "nonpayable",
      "type": "function"
    }
  ],
  "bytecode": "0x60e060405260058054600160a81b60ff60a81b199091161760ff60b01b1916601960b21b17905560646006556009805460ff60a01b191690553480156200004557600080fd5b5060405162004a1838038062004a18833981810160405260c08110156200006b57600080fd5b8151602083015160408085015160608601516080870180519351959794969295919491939282019284640100000000821115620000a757600080fd5b908301906020820185811115620000bd57600080fd5b8251640100000000811182820188101715620000d857600080fd5b82525081516020918201929091019080838360005b8381101562000107578181015183820152602001620000ed565b50505050905090810190601f168015620001355780820380516001836020036101000a031916815260200191505b50604052602001805160405193929190846401000000008211156200015957600080fd5b9083019060208201858111156200016f57600080fd5b82516401000000008111828201881017156200018a57600080fd5b82525081516020918201929091019080838360005b83811015620001b95781810151838201526020016200019f565b50505050905090810190601f168015620001e75780820380516001836020036101000a031916815260200191505b5060405250508251839150829062000207906003906020850190620002df565b5080516200021d906004906020840190620002df565b50506005805460ff1916601217905550600062000239620002db565b60058054610100600160a81b0319166101006001600160a01b03841690810291909117909155604051919250906000907f8be0079c531659141344cd1fd0a4f28419497f9722a3daafe3b4186f6b6457e0908290a35050600780546001600160a01b039093166001600160a01b031990931692909217909155506001600160601b0319606093841b811660805291831b821660a05290911b1660c0526200037b565b3390565b828054600181600116156101000203166002900490600052602060002090601f016020900481019282601f106200032257805160ff191683800117855562000352565b8280016001018555821562000352579182015b828111156200035257825182559160200191906001019062000335565b506200036092915062000364565b5090565b5b8082111562000360576000815560010162000365565b60805160601c60a05160601c60c05160601c61460d6200040b60003980611e225250806107075280610cf85280612db3528061364f525080610f5d52806110705280612650528061277a5280612885528061297c5280612c2e52806131fe528061342752806135ac528061384552806139275280613a785280613b6f5280613ce75280614042525061460d6000f3fe608060405234801561001057600080fd5b50600436106101a35760003560e01c806370a08231116100ee578063a47c12b511610097578063bd80662111610071578063bd8066211461055f578063c2b20a1814610567578063dd62ed3e146105a6578063f2fde38b146105e1576101a3565b8063a47c12b5146104b6578063a9059cbb146104d5578063bb2a9ad71461050e576101a3565b80638da5cb5b116100c85780638da5cb5b1461044457806395d89b4114610475578063a457c2d71461047d576101a3565b806370a08231146103de578063715018a6146104115780638bc7e8c414610419576101a3565b8063313ce567116101505780634c1839181161012a5780634c183918146103615780636c3f4e071461038a5780636f827c34146103b2576101a3565b8063313ce567146102f557806339509351146102fd57806347e6dece14610336576101a3565b806318160ddd1161018157806318160ddd1461029057806318181a9c146102aa57806323b872dd146102b2576101a3565b806305300b28146101a857806306fdde03146101c6578063095ea7b314610243575b600080fd5b6101b0610614565b6040805160ff9092168252519081900360200190f35b6101ce610619565b6040805160208082528351818301528351919283929083019185019080838360005b838110156102085781810151838201526020016101f0565b50505050905090810190601f1680156102355780820380516001836020036101000a031916815260200191505b509250505060405180910390f35b61027c6004803603604081101561025957600080fd5b5073ffffffffffffffffffffffffffffffffffffffff81351690602001356106cd565b604080519115158252519081900360200190f35b6102986106eb565b60408051918252519081900360200190f35b6102986106f1565b61027c600480360360608110156102c857600080fd5b5073ffffffffffffffffffffffffffffffffffffffff813581169160208101359091169060400135610864565b6101b0610906565b61027c6004803603604081101561031357600080fd5b5073ffffffffffffffffffffffffffffffffffffffff813516906020013561090f565b61035f6004803603604081101561034c57600080fd5b508035906020013563ffffffff1661096a565b005b61035f6004803603604081101561037757600080fd5b508035906020013563ffffffff16610ec4565b61035f600480360360408110156103a057600080fd5b5060ff8135811691602001351661135f565b61035f600480360360408110156103c857600080fd5b50803560ff16906020013563ffffffff1661156c565b610298600480360360208110156103f457600080fd5b503573ffffffffffffffffffffffffffffffffffffffff16611668565b61035f611690565b61042161179a565b604051808360ff1681526020018260ff1681526020019250505060405180910390f35b61044c6117da565b6040805173ffffffffffffffffffffffffffffffffffffffff9092168252519081900360200190f35b6101ce6117fb565b61027c6004803603604081101561049357600080fd5b5073ffffffffffffffffffffffffffffffffffffffff813516906020013561187a565b61035f600480360360208110156104cc57600080fd5b503515156118ef565b61027c600480360360408110156104eb57600080fd5b5073ffffffffffffffffffffffffffffffffffffffff81351690602001356119cf565b6105416004803603602081101561052457600080fd5b503573ffffffffffffffffffffffffffffffffffffffff166119e3565b60408051938452602084019290925282820152519081900360600190f35b610298611b12565b61035f6004803603604081101561057d57600080fd5b50803573ffffffffffffffffffffffffffffffffffffffff16906020013563ffffffff16611c26565b610298600480360360408110156105bc57600080fd5b5073ffffffffffffffffffffffffffffffffffffffff81358116916020013516611f85565b61035f600480360360208110156105f757600080fd5b503573ffffffffffffffffffffffffffffffffffffffff16611fbd565b601290565b60038054604080516020601f60027fffffffffffffffffffffffffffffffffffffffffffffffffffffffffffffffff6101006001881615020190951694909404938401819004810282018101909252828152606093909290918301828280156106c35780601f10610698576101008083540402835291602001916106c3565b820191906000526020600020905b8154815290600101906020018083116106a657829003601f168201915b5050505050905090565b60006106e16106da612157565b848461215b565b5060015b92915050565b60025490565b600080806106fd6106eb565b111561085f5760007f000000000000000000000000000000000000000000000000000000000000000073ffffffffffffffffffffffffffffffffffffffff16630261bf8b6040518163ffffffff1660e01b815260040160206040518083038186803b15801561076b57600080fd5b505afa15801561077f573d6000803e3d6000fd5b505050506040513d602081101561079557600080fd5b5051604080517fbf92857c000000000000000000000000000000000000000000000000000000008152306004820152905191925060009173ffffffffffffffffffffffffffffffffffffffff84169163bf92857c9160248083019260c0929190829003018186803b15801561080957600080fd5b505afa15801561081d573d6000803e3d6000fd5b505050506040513d60c081101561083357600080fd5b5051905061085a6108426106eb565b61085483670de0b6b3a76400006122a2565b90612315565b925050505b905090565b6000610871848484612357565b6108fb8461087d612157565b6108f6856040518060600160405280602881526020016144c86028913973ffffffffffffffffffffffffffffffffffffffff8a166000908152600160205260408120906108c8612157565b73ffffffffffffffffffffffffffffffffffffffff1681526020810191909152604001600020549190612527565b61215b565b5060015b9392505050565b60055460ff1690565b60006106e161091c612157565b846108f6856001600061092d612157565b73ffffffffffffffffffffffffffffffffffffffff908116825260208083019390935260409182016000908120918c1681529252902054906125d8565b60095474010000000000000000000000000000000000000000900460ff166109f357604080517f08c379a000000000000000000000000000000000000000000000000000000000815260206004820152601860248201527f4465706f7369742069732064697361626c6564206e6f772e0000000000000000604482015290519081900360640190fd5b600754604080517fdd62ed3e0000000000000000000000000000000000000000000000000000000081523360048201523060248201529051849273ffffffffffffffffffffffffffffffffffffffff169163dd62ed3e916044808301926020929190829003018186803b158015610a6957600080fd5b505afa158015610a7d573d6000803e3d6000fd5b505050506040513d6020811015610a9357600080fd5b50511015610aec576040517f08c379a000000000000000000000000000000000000000000000000000000000815260040180806020018281038252602c815260200180614587602c913960400191505060405180910390fd5b600754604080517f70a082310000000000000000000000000000000000000000000000000000000081523360048201529051849273ffffffffffffffffffffffffffffffffffffffff16916370a08231916024808301926020929190829003018186803b158015610b5c57600080fd5b505afa158015610b70573d6000803e3d6000fd5b505050506040513d6020811015610b8657600080fd5b50511015610bdf576040517f08c379a000000000000000000000000000000000000000000000000000000000815260040180806020018281038252602781526020018061432d6027913960400191505060405180910390fd5b600754604080517f23b872dd00000000000000000000000000000000000000000000000000000000815233600482015230602482015260448101859052905173ffffffffffffffffffffffffffffffffffffffff909216916323b872dd916064808201926020929091908290030181600087803b158015610c5f57600080fd5b505af1158015610c73573d6000803e3d6000fd5b505050506040513d6020811015610c8957600080fd5b5060009050610c966106f1565b600754909150600090610cc190859073ffffffffffffffffffffffffffffffffffffffff168561264c565b9050610ccd8184612d82565b506000610cd86106eb565b610cf457610ced8566038d7ea4c680006122a2565b9050610e5a565b60007f000000000000000000000000000000000000000000000000000000000000000073ffffffffffffffffffffffffffffffffffffffff16630261bf8b6040518163ffffffff1660e01b815260040160206040518083038186803b158015610d5c57600080fd5b505afa158015610d70573d6000803e3d6000fd5b505050506040513d6020811015610d8657600080fd5b5051604080517fbf92857c000000000000000000000000000000000000000000000000000000008152306004820152905191925060009173ffffffffffffffffffffffffffffffffffffffff84169163bf92857c9160248083019260c0929190829003018186803b158015610dfa57600080fd5b505afa158015610e0e573d6000803e3d6000fd5b505050506040513d60c0811015610e2457600080fd5b505190506000610e408661085484670de0b6b3a76400006122a2565b9050610e54610e4d6106eb565b8290612f99565b93505050505b610e643382612fdb565b337f7162984403f6c73c8639375d45a9187dfd04602231bd8e587c415718b5f7e5f98683610e906106eb565b610e98611b12565b604080519485526020850193909352838301919091526060830152519081900360800190a25050505050565b6000610ecf33611668565b11610f3b57604080517f08c379a000000000000000000000000000000000000000000000000000000000815260206004820152601260248201527f5661756c742062616c616e636520697320300000000000000000000000000000604482015290519081900360640190fd5b60408051600280825260608083018452926020830190803683370190505090507f000000000000000000000000000000000000000000000000000000000000000073ffffffffffffffffffffffffffffffffffffffff1663ad5c46486040518163ffffffff1660e01b815260040160206040518083038186803b158015610fc157600080fd5b505afa158015610fd5573d6000803e3d6000fd5b505050506040513d6020811015610feb57600080fd5b505181518290600090610ffa57fe5b73ffffffffffffffffffffffffffffffffffffffff928316602091820292909201015260075482519116908290600190811061103257fe5b602002602001019073ffffffffffffffffffffffffffffffffffffffff16908173ffffffffffffffffffffffffffffffffffffffff168152505060007f000000000000000000000000000000000000000000000000000000000000000073ffffffffffffffffffffffffffffffffffffffff16631f00ca7485846040518363ffffffff1660e01b81526004018083815260200180602001828103825283818151815260200191508051906020019060200280838360005b838110156111015781810151838201526020016110e9565b50505050905001935050505060006040518083038186803b15801561112557600080fd5b505afa158015611139573d6000803e3d6000fd5b505050506040513d6000823e601f3d9081017fffffffffffffffffffffffffffffffffffffffffffffffffffffffffffffffe0168201604052602081101561118057600080fd5b81019080805160405193929190846401000000008211156111a057600080fd5b9083019060208201858111156111b557600080fd5b82518660208202830111640100000000821117156111d257600080fd5b82525081516020918201928201910280838360005b838110156111ff5781810151838201526020016111e7565b5050505090500160405250505060008151811061121857fe5b60209081029190910101516005549091506000906112789060ff76010000000000000000000000000000000000000000000082048116916108549186917501000000000000000000000000000000000000000000900481168401166122a2565b9050600061128d61128833611668565b61310c565b6009549091506000906112b890839073ffffffffffffffffffffffffffffffffffffffff16836131f5565b905082811015611313576040517f08c379a000000000000000000000000000000000000000000000000000000000815260040180806020018281038252602d8152602001806144f0602d913960400191505060405180910390fd5b600061132882610854866402540be4006122a2565b905060006113486402540be4006108548461134233611668565b906122a2565b90506113548189613294565b505050505050505050565b611367612157565b600554610100900473ffffffffffffffffffffffffffffffffffffffff9081169116146113f557604080517f08c379a000000000000000000000000000000000000000000000000000000000815260206004820181905260248201527f4f776e61626c653a2063616c6c6572206973206e6f7420746865206f776e6572604482015290519081900360640190fd5b8060ff168260ff16111561146a57604080517f08c379a000000000000000000000000000000000000000000000000000000000815260206004820152601b60248201527f466565206672616374696f6e20657863656564656420626173652e0000000000604482015290519081900360640190fd5b60008160ff168360640260ff168161147e57fe5b04905060028160ff1611156114de576040517f08c379a00000000000000000000000000000000000000000000000000000000081526004018080602001828103825260298152602001806144046029913960400191505060405180910390fd5b506005805460ff928316760100000000000000000000000000000000000000000000027fffffffffffffffffff00ffffffffffffffffffffffffffffffffffffffffffff949093167501000000000000000000000000000000000000000000027fffffffffffffffffffff00ffffffffffffffffffffffffffffffffffffffffff9091161792909216179055565b600061157733611668565b116115e357604080517f08c379a000000000000000000000000000000000000000000000000000000000815260206004820152601260248201527f5661756c742062616c616e636520697320300000000000000000000000000000604482015290519081900360640190fd5b60648260ff161115611640576040517f08c379a000000000000000000000000000000000000000000000000000000000815260040180806020018281038252602f815260200180614478602f913960400191505060405180910390fd5b600061165760646108548560ff1661134233611668565b90506116638183613294565b505050565b73ffffffffffffffffffffffffffffffffffffffff1660009081526020819052604090205490565b611698612157565b600554610100900473ffffffffffffffffffffffffffffffffffffffff90811691161461172657604080517f08c379a000000000000000000000000000000000000000000000000000000000815260206004820181905260248201527f4f776e61626c653a2063616c6c6572206973206e6f7420746865206f776e6572604482015290519081900360640190fd5b600554604051600091610100900473ffffffffffffffffffffffffffffffffffffffff16907f8be0079c531659141344cd1fd0a4f28419497f9722a3daafe3b4186f6b6457e0908390a3600580547fffffffffffffffffffffff0000000000000000000000000000000000000000ff169055565b60055460ff750100000000000000000000000000000000000000000082048116917601000000000000000000000000000000000000000000009004169091565b600554610100900473ffffffffffffffffffffffffffffffffffffffff1690565b60048054604080516020601f60027fffffffffffffffffffffffffffffffffffffffffffffffffffffffffffffffff6101006001881615020190951694909404938401819004810282018101909252828152606093909290918301828280156106c35780601f10610698576101008083540402835291602001916106c3565b60006106e1611887612157565b846108f6856040518060600160405280602581526020016145b360259139600160006118b1612157565b73ffffffffffffffffffffffffffffffffffffffff908116825260208083019390935260409182016000908120918d16815292529020549190612527565b6118f7612157565b600554610100900473ffffffffffffffffffffffffffffffffffffffff90811691161461198557604080517f08c379a000000000000000000000000000000000000000000000000000000000815260206004820181905260248201527f4f776e61626c653a2063616c6c6572206973206e6f7420746865206f776e6572604482015290519081900360640190fd5b6009805491151574010000000000000000000000000000000000000000027fffffffffffffffffffffff00ffffffffffffffffffffffffffffffffffffffff909216919091179055565b60006106e16119dc612157565b8484612357565b6000806000806119f561128886611668565b600954909150600090611a2190839073ffffffffffffffffffffffffffffffffffffffff1660016131f5565b600954909150600090611a4c90849073ffffffffffffffffffffffffffffffffffffffff16836131f5565b600754909150600090611a7890849073ffffffffffffffffffffffffffffffffffffffff1660016135a4565b600554909150600090611acf907501000000000000000000000000000000000000000000810460ff9081167601000000000000000000000000000000000000000000009092048116820116906108549086906122a2565b90506000611b00611ae08584612f99565b60075473ffffffffffffffffffffffffffffffffffffffff1660006135a4565b929a9299509097509095505050505050565b60085460009073ffffffffffffffffffffffffffffffffffffffff16611b83576040517f08c379a000000000000000000000000000000000000000000000000000000000815260040180806020018281038252602581526020018061442d6025913960400191505060405180910390fd5b600854604080517f70a08231000000000000000000000000000000000000000000000000000000008152306004820152905160009273ffffffffffffffffffffffffffffffffffffffff16916370a08231916024808301926020929190829003018186803b158015611bf457600080fd5b505afa158015611c08573d6000803e3d6000fd5b505050506040513d6020811015611c1e57600080fd5b505191505090565b611c2e612157565b600554610100900473ffffffffffffffffffffffffffffffffffffffff908116911614611cbc57604080517f08c379a000000000000000000000000000000000000000000000000000000000815260206004820181905260248201527f4f776e61626c653a2063616c6c6572206973206e6f7420746865206f776e6572604482015290519081900360640190fd5b73ffffffffffffffffffffffffffffffffffffffff8216611d28576040517f08c379a00000000000000000000000000000000000000000000000000000000081526004018080602001828103825260238152602001806143996023913960400191505060405180910390fd5b6009546000908190819073ffffffffffffffffffffffffffffffffffffffff1615801590611d6d575060085473ffffffffffffffffffffffffffffffffffffffff1615155b15611da95760095460085473ffffffffffffffffffffffffffffffffffffffff9182169450169150611da6611da0611b12565b85613643565b90505b600980547fffffffffffffffffffffffff00000000000000000000000000000000000000001673ffffffffffffffffffffffffffffffffffffffff878116918217909255604080517fd2493b6c0000000000000000000000000000000000000000000000000000000081526004810192909252516000927f0000000000000000000000000000000000000000000000000000000000000000169163d2493b6c916024808301926060929190829003018186803b158015611e6857600080fd5b505afa158015611e7c573d6000803e3d6000fd5b505050506040513d6060811015611e9257600080fd5b5051600880547fffffffffffffffffffffffff00000000000000000000000000000000000000001673ffffffffffffffffffffffffffffffffffffffff831617905590508115611ee857611ee68286612d82565b505b6009546008547f95263ff5fd39f5722e7238d5ea66835088eb36c08cb0cf3c6c83aa9950e737cc918691869173ffffffffffffffffffffffffffffffffffffffff9081169116611f36611b12565b6040805173ffffffffffffffffffffffffffffffffffffffff968716815294861660208601529285168484015293166060830152608082019290925290519081900360a00190a1505050505050565b73ffffffffffffffffffffffffffffffffffffffff918216600090815260016020908152604080832093909416825291909152205490565b611fc5612157565b600554610100900473ffffffffffffffffffffffffffffffffffffffff90811691161461205357604080517f08c379a000000000000000000000000000000000000000000000000000000000815260206004820181905260248201527f4f776e61626c653a2063616c6c6572206973206e6f7420746865206f776e6572604482015290519081900360640190fd5b73ffffffffffffffffffffffffffffffffffffffff81166120bf576040517f08c379a00000000000000000000000000000000000000000000000000000000081526004018080602001828103825260268152602001806143bc6026913960400191505060405180910390fd5b60055460405173ffffffffffffffffffffffffffffffffffffffff80841692610100900416907f8be0079c531659141344cd1fd0a4f28419497f9722a3daafe3b4186f6b6457e090600090a36005805473ffffffffffffffffffffffffffffffffffffffff909216610100027fffffffffffffffffffffff0000000000000000000000000000000000000000ff909216919091179055565b3390565b73ffffffffffffffffffffffffffffffffffffffff83166121c7576040517f08c379a00000000000000000000000000000000000000000000000000000000081526004018080602001828103825260248152602001806145636024913960400191505060405180910390fd5b73ffffffffffffffffffffffffffffffffffffffff8216612233576040517f08c379a00000000000000000000000000000000000000000000000000000000081526004018080602001828103825260228152602001806143e26022913960400191505060405180910390fd5b73ffffffffffffffffffffffffffffffffffffffff808416600081815260016020908152604080832094871680845294825291829020859055815185815291517f8c5be1e5ebec7d5bd14f71427d1e84f3dd0314c0f7b2291e5b200ac8c7c3b9259281900390910190a3505050565b6000826122b1575060006106e5565b828202828482816122be57fe5b04146108ff576040517f08c379a00000000000000000000000000000000000000000000000000000000081526004018080602001828103825260218152602001806144a76021913960400191505060405180910390fd5b60006108ff83836040518060400160405280601a81526020017f536166654d6174683a206469766973696f6e206279207a65726f0000000000008152506137c2565b73ffffffffffffffffffffffffffffffffffffffff83166123c3576040517f08c379a000000000000000000000000000000000000000000000000000000000815260040180806020018281038252602581526020018061453e6025913960400191505060405180910390fd5b73ffffffffffffffffffffffffffffffffffffffff821661242f576040517f08c379a00000000000000000000000000000000000000000000000000000000081526004018080602001828103825260238152602001806143546023913960400191505060405180910390fd5b61243a838383611663565b612484816040518060600160405280602681526020016144526026913973ffffffffffffffffffffffffffffffffffffffff86166000908152602081905260409020549190612527565b73ffffffffffffffffffffffffffffffffffffffff80851660009081526020819052604080822093909355908416815220546124c090826125d8565b73ffffffffffffffffffffffffffffffffffffffff8084166000818152602081815260409182902094909455805185815290519193928716927fddf252ad1be2c89b69c2b068fc378daa952ba7f163c4a11628f55a4df523b3ef92918290030190a3505050565b600081848411156125d0576040517f08c379a00000000000000000000000000000000000000000000000000000000081526004018080602001828103825283818151815260200191508051906020019080838360005b8381101561259557818101518382015260200161257d565b50505050905090810190601f1680156125c25780820380516001836020036101000a031916815260200191505b509250505060405180910390fd5b505050900390565b6000828201838110156108ff57604080517f08c379a000000000000000000000000000000000000000000000000000000000815260206004820152601b60248201527f536166654d6174683a206164646974696f6e206f766572666c6f770000000000604482015290519081900360640190fd5b60007f000000000000000000000000000000000000000000000000000000000000000073ffffffffffffffffffffffffffffffffffffffff1663ad5c46486040518163ffffffff1660e01b815260040160206040518083038186803b1580156126b457600080fd5b505afa1580156126c8573d6000803e3d6000fd5b505050506040513d60208110156126de57600080fd5b505173ffffffffffffffffffffffffffffffffffffffff84811691161480612704575083155b156127105750826108ff565b6040805160028082526060808301845292602083019080368337019050509050838160008151811061273e57fe5b602002602001019073ffffffffffffffffffffffffffffffffffffffff16908173ffffffffffffffffffffffffffffffffffffffff16815250507f000000000000000000000000000000000000000000000000000000000000000073ffffffffffffffffffffffffffffffffffffffff1663ad5c46486040518163ffffffff1660e01b815260040160206040518083038186803b1580156127de57600080fd5b505afa1580156127f2573d6000803e3d6000fd5b505050506040513d602081101561280857600080fd5b505181518290600190811061281957fe5b602002602001019073ffffffffffffffffffffffffffffffffffffffff16908173ffffffffffffffffffffffffffffffffffffffff16815250508060008151811061286057fe5b602002602001015173ffffffffffffffffffffffffffffffffffffffff1663095ea7b37f0000000000000000000000000000000000000000000000000000000000000000876040518363ffffffff1660e01b8152600401808373ffffffffffffffffffffffffffffffffffffffff16815260200182815260200192505050602060405180830381600087803b1580156128f857600080fd5b505af115801561290c573d6000803e3d6000fd5b505050506040513d602081101561292257600080fd5b5050604080517fd06ca61f000000000000000000000000000000000000000000000000000000008152600481018781526024820192835283516044830152835160009373ffffffffffffffffffffffffffffffffffffffff7f0000000000000000000000000000000000000000000000000000000000000000169363d06ca61f938b938893919260640190602085810191028083838c5b838110156129d15781810151838201526020016129b9565b50505050905001935050505060006040518083038186803b1580156129f557600080fd5b505afa158015612a09573d6000803e3d6000fd5b505050506040513d6000823e601f3d9081017fffffffffffffffffffffffffffffffffffffffffffffffffffffffffffffffe01682016040526020811015612a5057600080fd5b8101908080516040519392919084640100000000821115612a7057600080fd5b908301906020820185811115612a8557600080fd5b8251866020820283011164010000000082111715612aa257600080fd5b82525081516020918201928201910280838360005b83811015612acf578181015183820152602001612ab7565b50505050905001604052505050600181518110612ae857fe5b602002602001015190506000612b0f6103e86108546103e7856122a290919063ffffffff16565b9050600083600181518110612b2057fe5b602002602001015173ffffffffffffffffffffffffffffffffffffffff166370a08231306040518263ffffffff1660e01b8152600401808273ffffffffffffffffffffffffffffffffffffffff16815260200191505060206040518083038186803b158015612b8e57600080fd5b505afa158015612ba2573d6000803e3d6000fd5b505050506040513d6020811015612bb857600080fd5b50516040517f5c11d795000000000000000000000000000000000000000000000000000000008152600481018a815260248201859052306064830181905263ffffffff8a16608484015260a060448401908152885160a4850152885194955073ffffffffffffffffffffffffffffffffffffffff7f00000000000000000000000000000000000000000000000000000000000000001694635c11d795948e9489948c9490938f9360c401906020878101910280838360005b83811015612c88578181015183820152602001612c70565b505050509050019650505050505050600060405180830381600087803b158015612cb157600080fd5b505af1158015612cc5573d6000803e3d6000fd5b50505050600084600181518110612cd857fe5b602002602001015173ffffffffffffffffffffffffffffffffffffffff166370a08231306040518263ffffffff1660e01b8152600401808273ffffffffffffffffffffffffffffffffffffffff16815260200191505060206040518083038186803b158015612d4657600080fd5b505afa158015612d5a573d6000803e3d6000fd5b505050506040513d6020811015612d7057600080fd5b50519190910398975050505050505050565b6009546000908190612dac90859073ffffffffffffffffffffffffffffffffffffffff1685613841565b90506000807f000000000000000000000000000000000000000000000000000000000000000073ffffffffffffffffffffffffffffffffffffffff16630261bf8b6040518163ffffffff1660e01b815260040160206040518083038186803b158015612e1757600080fd5b505afa158015612e2b573d6000803e3d6000fd5b505050506040513d6020811015612e4157600080fd5b5051600954604080517f095ea7b300000000000000000000000000000000000000000000000000000000815273ffffffffffffffffffffffffffffffffffffffff808516600483015260248201889052915193945091169163095ea7b3916044808201926020929091908290030181600087803b158015612ec157600080fd5b505af1158015612ed5573d6000803e3d6000fd5b505050506040513d6020811015612eeb57600080fd5b5050600954604080517fe8eda9df00000000000000000000000000000000000000000000000000000000815273ffffffffffffffffffffffffffffffffffffffff92831660048201526024810186905230604482015261ffff8516606482015290519183169163e8eda9df9160848082019260009290919082900301818387803b158015612f7857600080fd5b505af1158015612f8c573d6000803e3d6000fd5b5050505050505092915050565b60006108ff83836040518060400160405280601e81526020017f536166654d6174683a207375627472616374696f6e206f766572666c6f770000815250612527565b73ffffffffffffffffffffffffffffffffffffffff821661305d57604080517f08c379a000000000000000000000000000000000000000000000000000000000815260206004820152601f60248201527f45524332303a206d696e7420746f20746865207a65726f206164647265737300604482015290519081900360640190fd5b61306960008383611663565b60025461307690826125d8565b60025573ffffffffffffffffffffffffffffffffffffffff82166000908152602081905260409020546130a990826125d8565b73ffffffffffffffffffffffffffffffffffffffff83166000818152602081815260408083209490945583518581529351929391927fddf252ad1be2c89b69c2b068fc378daa952ba7f163c4a11628f55a4df523b3ef9281900390910190a35050565b60008080806131196106eb565b111561313c5761313961312a6106eb565b610854866402540be4006122a2565b90505b600854604080517f70a0823100000000000000000000000000000000000000000000000000000000815230600482015290516131ed926402540be4009261085492869273ffffffffffffffffffffffffffffffffffffffff16916370a08231916024808301926020929190829003018186803b1580156131bb57600080fd5b505afa1580156131cf573d6000803e3d6000fd5b505050506040513d60208110156131e557600080fd5b5051906122a2565b949350505050565b60006131ed84847f000000000000000000000000000000000000000000000000000000000000000073ffffffffffffffffffffffffffffffffffffffff1663ad5c46486040518163ffffffff1660e01b815260040160206040518083038186803b15801561326257600080fd5b505afa158015613276573d6000803e3d6000fd5b505050506040513d602081101561328c57600080fd5b505185613ec6565b600061329f8361310c565b90506132ab33846141e2565b60006132b78284613643565b60055490915060009061330e907501000000000000000000000000000000000000000000810460ff9081167601000000000000000000000000000000000000000000009092048116820116906108549085906122a2565b9050600061333e61331f8484612f99565b60075473ffffffffffffffffffffffffffffffffffffffff1687613841565b600754604080517fa9059cbb00000000000000000000000000000000000000000000000000000000815233600482015260248101849052905192935073ffffffffffffffffffffffffffffffffffffffff9091169163a9059cbb916044808201926020929091908290030181600087803b1580156133bb57600080fd5b505af11580156133cf573d6000803e3d6000fd5b505050506040513d60208110156133e557600080fd5b5050604080517fad5c4648000000000000000000000000000000000000000000000000000000008152905173ffffffffffffffffffffffffffffffffffffffff7f0000000000000000000000000000000000000000000000000000000000000000169163ad5c4648916004808301926020929190829003018186803b15801561346d57600080fd5b505afa158015613481573d6000803e3d6000fd5b505050506040513d602081101561349757600080fd5b505173ffffffffffffffffffffffffffffffffffffffff1663a9059cbb6134bc6117da565b846040518363ffffffff1660e01b8152600401808373ffffffffffffffffffffffffffffffffffffffff16815260200182815260200192505050602060405180830381600087803b15801561351057600080fd5b505af1158015613524573d6000803e3d6000fd5b505050506040513d602081101561353a57600080fd5b503390507fb7ee00edafdb5db3a1b52a5789a6b562eb48268842d113dbfe860b6f86e5f59582848961356a6106eb565b613572611b12565b6040805195865260208601949094528484019290925260608401526080830152519081900360a00190a2505050505050565b60006131ed847f000000000000000000000000000000000000000000000000000000000000000073ffffffffffffffffffffffffffffffffffffffff1663ad5c46486040518163ffffffff1660e01b815260040160206040518083038186803b15801561361057600080fd5b505afa158015613624573d6000803e3d6000fd5b505050506040513d602081101561363a57600080fd5b50518585613ec6565b600080600090506000807f000000000000000000000000000000000000000000000000000000000000000073ffffffffffffffffffffffffffffffffffffffff16630261bf8b6040518163ffffffff1660e01b815260040160206040518083038186803b1580156136b357600080fd5b505afa1580156136c7573d6000803e3d6000fd5b505050506040513d60208110156136dd57600080fd5b5051600954604080517f69328dec00000000000000000000000000000000000000000000000000000000815273ffffffffffffffffffffffffffffffffffffffff9283166004820152602481018a90523060448201529051929350908316916369328dec916064808201926020929091908290030181600087803b15801561376457600080fd5b505af1158015613778573d6000803e3d6000fd5b505050506040513d602081101561378e57600080fd5b50516009549092506137b890839073ffffffffffffffffffffffffffffffffffffffff168761264c565b9695505050505050565b6000818361382b576040517f08c379a000000000000000000000000000000000000000000000000000000000815260206004820181815283516024840152835190928392604490910191908501908083836000831561259557818101518382015260200161257d565b50600083858161383757fe5b0495945050505050565b60007f000000000000000000000000000000000000000000000000000000000000000073ffffffffffffffffffffffffffffffffffffffff1663ad5c46486040518163ffffffff1660e01b815260040160206040518083038186803b1580156138a957600080fd5b505afa1580156138bd573d6000803e3d6000fd5b505050506040513d60208110156138d357600080fd5b505173ffffffffffffffffffffffffffffffffffffffff848116911614806138f9575083155b156139055750826108ff565b60408051600280825260608083018452926020830190803683370190505090507f000000000000000000000000000000000000000000000000000000000000000073ffffffffffffffffffffffffffffffffffffffff1663ad5c46486040518163ffffffff1660e01b815260040160206040518083038186803b15801561398b57600080fd5b505afa15801561399f573d6000803e3d6000fd5b505050506040513d60208110156139b557600080fd5b5051815182906000906139c457fe5b602002602001019073ffffffffffffffffffffffffffffffffffffffff16908173ffffffffffffffffffffffffffffffffffffffff16815250508381600181518110613a0c57fe5b602002602001019073ffffffffffffffffffffffffffffffffffffffff16908173ffffffffffffffffffffffffffffffffffffffff168152505080600081518110613a5357fe5b602002602001015173ffffffffffffffffffffffffffffffffffffffff1663095ea7b37f0000000000000000000000000000000000000000000000000000000000000000876040518363ffffffff1660e01b8152600401808373ffffffffffffffffffffffffffffffffffffffff16815260200182815260200192505050602060405180830381600087803b158015613aeb57600080fd5b505af1158015613aff573d6000803e3d6000fd5b505050506040513d6020811015613b1557600080fd5b5050604080517fd06ca61f000000000000000000000000000000000000000000000000000000008152600481018781526024820192835283516044830152835160009373ffffffffffffffffffffffffffffffffffffffff7f0000000000000000000000000000000000000000000000000000000000000000169363d06ca61f938b938893919260640190602085810191028083838c5b83811015613bc4578181015183820152602001613bac565b50505050905001935050505060006040518083038186803b158015613be857600080fd5b505afa158015613bfc573d6000803e3d6000fd5b505050506040513d6000823e601f3d9081017fffffffffffffffffffffffffffffffffffffffffffffffffffffffffffffffe01682016040526020811015613c4357600080fd5b8101908080516040519392919084640100000000821115613c6357600080fd5b908301906020820185811115613c7857600080fd5b8251866020820283011164010000000082111715613c9557600080fd5b82525081516020918201928201910280838360005b83811015613cc2578181015183820152602001613caa565b50505050905001604052505050600181518110613cdb57fe5b602002602001015190507f000000000000000000000000000000000000000000000000000000000000000073ffffffffffffffffffffffffffffffffffffffff166338ed173987838530896040518663ffffffff1660e01b815260040180868152602001858152602001806020018473ffffffffffffffffffffffffffffffffffffffff1681526020018363ffffffff168152602001828103825285818151815260200191508051906020019060200280838360005b83811015613da9578181015183820152602001613d91565b505050509050019650505050505050600060405180830381600087803b158015613dd257600080fd5b505af1158015613de6573d6000803e3d6000fd5b505050506040513d6000823e601f3d9081017fffffffffffffffffffffffffffffffffffffffffffffffffffffffffffffffe01682016040526020811015613e2d57600080fd5b8101908080516040519392919084640100000000821115613e4d57600080fd5b908301906020820185811115613e6257600080fd5b8251866020820283011164010000000082111715613e7f57600080fd5b82525081516020918201928201910280838360005b83811015613eac578181015183820152602001613e94565b505050509050016040525050505080925050509392505050565b60408051600280825260608083018452600093909291906020830190803683370190505090508481600081518110613efa57fe5b602002602001019073ffffffffffffffffffffffffffffffffffffffff16908173ffffffffffffffffffffffffffffffffffffffff16815250508381600181518110613f4257fe5b602002602001019073ffffffffffffffffffffffffffffffffffffffff16908173ffffffffffffffffffffffffffffffffffffffff168152505080600181518110613f8957fe5b602002602001015173ffffffffffffffffffffffffffffffffffffffff1681600081518110613fb457fe5b602002602001015173ffffffffffffffffffffffffffffffffffffffff161480613fdc575085155b15613fea57859150506131ed565b604080517fd06ca61f000000000000000000000000000000000000000000000000000000008152600481018881526024820192835283516044830152835160009373ffffffffffffffffffffffffffffffffffffffff7f0000000000000000000000000000000000000000000000000000000000000000169363d06ca61f938c938893919260640190602080860191028083838c5b8381101561409757818101518382015260200161407f565b50505050905001935050505060006040518083038186803b1580156140bb57600080fd5b505afa1580156140cf573d6000803e3d6000fd5b505050506040513d6000823e601f3d9081017fffffffffffffffffffffffffffffffffffffffffffffffffffffffffffffffe0168201604052602081101561411657600080fd5b810190808051604051939291908464010000000082111561413657600080fd5b90830190602082018581111561414b57600080fd5b825186602082028301116401000000008211171561416857600080fd5b82525081516020918201928201910280838360005b8381101561419557818101518382015260200161417d565b505050509050016040525050506001815181106141ae57fe5b6020026020010151905083156141d9576141d06103e5610854836103e86122a2565b925050506131ed565b91506131ed9050565b73ffffffffffffffffffffffffffffffffffffffff821661424e576040517f08c379a000000000000000000000000000000000000000000000000000000000815260040180806020018281038252602181526020018061451d6021913960400191505060405180910390fd5b61425a82600083611663565b6142a4816040518060600160405280602281526020016143776022913973ffffffffffffffffffffffffffffffffffffffff85166000908152602081905260409020549190612527565b73ffffffffffffffffffffffffffffffffffffffff83166000908152602081905260409020556002546142d79082612f99565b60025560408051828152905160009173ffffffffffffffffffffffffffffffffffffffff8516917fddf252ad1be2c89b69c2b068fc378daa952ba7f163c4a11628f55a4df523b3ef9181900360200190a3505056fe417474656d7074656420746f206465706f736974206d6f7265207468616e2062616c616e63652e45524332303a207472616e7366657220746f20746865207a65726f206164647265737345524332303a206275726e20616d6f756e7420657863656564732062616c616e6365537472617465677920746f6b656e2061646472657373206d757374206265207365742e4f776e61626c653a206e6577206f776e657220697320746865207a65726f206164647265737345524332303a20617070726f766520746f20746865207a65726f2061646472657373417474656d707420746f207365742070657263656e7461676520686967686572207468616e2032252e737472617465677920726573657276652061646472657373206d757374206265207365742e45524332303a207472616e7366657220616d6f756e7420657863656564732062616c616e6365417474656d707420746f207769746864726177206d6f7265207468616e2031303025206f6620746865206173736574536166654d6174683a206d756c7469706c69636174696f6e206f766572666c6f7745524332303a207472616e7366657220616d6f756e74206578636565647320616c6c6f77616e6365417474656d707420746f207769746864726177206d6f7265207468616e2075736572277320686f6c64696e672e45524332303a206275726e2066726f6d20746865207a65726f206164647265737345524332303a207472616e736665722066726f6d20746865207a65726f206164647265737345524332303a20617070726f76652066726f6d20746865207a65726f2061646472657373436f6e7472616374206973206e6f7420616c6c6f77656420746f207370656e6420757365722773204452432e45524332303a2064656372656173656420616c6c6f77616e63652062656c6f77207a65726fa2646970667358221220fdddbafe44b4e38675ff06ccadb7237304edddd662e1c1be3c0c646261ad297464736f6c634300060c0033",
  "immutableReferences": {
    "89": [
      {
        "length": 32,
        "start": 3933
      },
      {
        "length": 32,
        "start": 4208
      },
      {
        "length": 32,
        "start": 9808
      },
      {
        "length": 32,
        "start": 10106
      },
      {
        "length": 32,
        "start": 10373
      },
      {
        "length": 32,
        "start": 10620
      },
      {
        "length": 32,
        "start": 11310
      },
      {
        "length": 32,
        "start": 12798
      },
      {
        "length": 32,
        "start": 13351
      },
      {
        "length": 32,
        "start": 13740
      },
      {
        "length": 32,
        "start": 14405
      },
      {
        "length": 32,
        "start": 14631
      },
      {
        "length": 32,
        "start": 14968
      },
      {
        "length": 32,
        "start": 15215
      },
      {
        "length": 32,
        "start": 15591
      },
      {
        "length": 32,
        "start": 16450
      }
    ],
    "91": [
      {
        "length": 32,
        "start": 1799
      },
      {
        "length": 32,
        "start": 3320
      },
      {
        "length": 32,
        "start": 11699
      },
      {
        "length": 32,
        "start": 13903
      }
    ],
    "93": [
      {
        "length": 32,
        "start": 7714
      }
    ]
  },
  "source": "// SPDX-License-Identifier: AGPL-3.0-or-later\r\n\r\npragma solidity =0.6.12;\r\n\r\nimport \"@openzeppelin/contracts/access/Ownable.sol\";\r\nimport \"@openzeppelin/contracts/math/SafeMath.sol\";\r\nimport \"@openzeppelin/contracts/token/ERC20/ERC20.sol\";\r\nimport \"@openzeppelin/contracts/token/ERC20/SafeERC20.sol\";\r\nimport \"@openzeppelin/contracts/utils/ReentrancyGuard.sol\";\r\n\r\nimport \"./interfaces/Uniswap/IUniswapV2Factory.sol\";\r\nimport \"./interfaces/Uniswap/IUniswapV2Pair.sol\";\r\nimport \"./interfaces/Uniswap/IUniswapV2Router02.sol\";\r\n\r\nimport \"./interfaces/AAVE/ILendingPoolAddressesProvider.sol\";\r\nimport \"./interfaces/AAVE/ILendingPool.sol\";\r\nimport \"./interfaces/AAVE/IProtocolDataProvider.sol\";\r\n\r\nimport \"./interfaces/IDigitalReserve.sol\";\r\n\r\n/**\r\n * @dev Implementation of Digital Reserve contract.\r\n * Digital Reserve contract converts user's DRC into a set of SoV assets using the Uniswap router,\r\n * and hold these assets for it's users.\r\n * When users initiate a withdrawal action, the contract converts a share of the vault,\r\n * that the user is requesting, to DRC and sends it back to their wallet.\r\n */\r\ncontract DigitalReserve is IDigitalReserve, ERC20, Ownable {\r\n    using SafeMath for uint256;\r\n\r\n    /**\r\n     * @dev Set Uniswap router address, DRC token address, DR name.\r\n     * @param _router Uniswap V2 router address.\r\n     * @param _lendingPoolProvider AAVE Lenging Pool Provider address.\r\n     * @param _protocolAddress AAVE Protocol Contract address.\r\n     * @param _drcAddress DRC token address,\r\n     * @param _name DR POD token name\r\n     * @param _symbol DR POD token symbol\r\n     */\r\n    constructor(\r\n        address _router,\r\n        address _lendingPoolProvider,\r\n        address _protocolAddress,\r\n        address _drcAddress,\r\n        string memory _name,\r\n        string memory _symbol\r\n    ) public ERC20(_name, _symbol) {\r\n        drcAddress = _drcAddress;\r\n        uniswapRouter = IUniswapV2Router02(_router);\r\n        lendingPoolProvider = ILendingPoolAddressesProvider(_lendingPoolProvider);\r\n        protocolAddress = IProtocolDataProvider(_protocolAddress);\r\n    }\r\n\r\n    uint8 private _feeFraction = 1;\r\n    uint8 private _feeBase = 100;\r\n    uint8 private constant _priceDecimals = 18;\r\n    uint256 private _tokenPercentage = 100;\r\n\r\n    address private drcAddress;\r\n    address private _strategyReserve;\r\n    address private _strategyToken;\r\n\r\n    bool private depositEnabled = false;\r\n\r\n    IUniswapV2Router02 private immutable uniswapRouter;\r\n    ILendingPoolAddressesProvider private immutable lendingPoolProvider;\r\n    IProtocolDataProvider private immutable protocolAddress;\r\n\r\n    /**\r\n     * @dev See {IDigitalReserve-withdrawalFee}.\r\n     */\r\n    function withdrawalFee() external view override returns (uint8, uint8) {\r\n        return (_feeFraction, _feeBase);\r\n    }\r\n\r\n    /**\r\n     * @dev See {IDigitalReserve-priceDecimals}.\r\n     */\r\n    function priceDecimals() external view override returns (uint8) {\r\n        return _priceDecimals;\r\n    }\r\n\r\n    /**\r\n     * @dev See {IDigitalReserve-totalTokenStored}.\r\n     */\r\n    function totalTokenStored() public view override returns (uint256) {\r\n        require(_strategyReserve != address(0x00), \"strategy reserve address must be set.\");\r\n        uint256 amounts = 0;\r\n        amounts = IERC20(_strategyReserve).balanceOf(address(this));\r\n        return amounts;\r\n    }\r\n\r\n    /**\r\n     * @dev See {IDigitalReserve-getUserVaultInDrc}.\r\n     */\r\n    function getUserVaultInDrc(\r\n        address user\r\n    ) public view override returns (uint256, uint256, uint256) {\r\n        uint256 userStrategyTokens = _getStrategyTokensByPodAmount(balanceOf(user));\r\n        uint256 userVaultWorthInEth = _getEthAmountByTokenAmount(userStrategyTokens, _strategyToken, true);\r\n        uint256 userVaultWorthInEthAfterSwap = _getEthAmountByTokenAmount(userStrategyTokens, _strategyToken, false);\r\n\r\n        uint256 drcAmountBeforeFees = _getTokenAmountByEthAmount(userVaultWorthInEth, drcAddress, true);\r\n\r\n        uint256 fees = userVaultWorthInEthAfterSwap.mul(_feeFraction).div(_feeBase + _feeFraction);\r\n        uint256 drcAmountAfterFees = _getTokenAmountByEthAmount(userVaultWorthInEthAfterSwap.sub(fees), drcAddress, false);\r\n\r\n        return (drcAmountBeforeFees, drcAmountAfterFees, fees);\r\n    }\r\n\r\n    /**\r\n     * @dev See {IDigitalReserve-getProofOfDepositPrice}.\r\n     */\r\n    function getProofOfDepositPrice() public view override returns (uint256) {\r\n        uint256 proofOfDepositPrice = 0;\r\n        if (totalSupply() > 0) {\r\n            ILendingPool lendingPool = ILendingPool(lendingPoolProvider.getLendingPool());\r\n            (uint256 vaultTotalInEth, , , , , ) = lendingPool.getUserAccountData(address(this));\r\n\r\n            proofOfDepositPrice = vaultTotalInEth.mul(1e18).div(totalSupply());\r\n        }\r\n        return proofOfDepositPrice;\r\n    }\r\n\r\n    /**\r\n     * @dev See {IDigitalReserve-depositDrc}.\r\n     */\r\n    function depositDrc(uint256 drcAmount, uint32 deadline) external override {\r\n        require(depositEnabled, \"Deposit is disabled now.\");\r\n        require(IERC20(drcAddress).allowance(msg.sender, address(this)) >= drcAmount, \"Contract is not allowed to spend user's DRC.\");\r\n        require(IERC20(drcAddress).balanceOf(msg.sender) >= drcAmount, \"Attempted to deposit more than balance.\");\r\n\r\n        /** For the production mode, it is better **/\r\n        // SafeERC20.safeTransferFrom(IERC20(drcAddress), msg.sender, address(this), drcAmount);\r\n\r\n        /** For the test mode, it is better to test and debug */\r\n        IERC20(drcAddress).transferFrom(msg.sender, address(this), drcAmount);\r\n        // Get current unit price before adding tokens to vault\r\n        uint256 currentPodUnitPrice = getProofOfDepositPrice();\r\n\r\n        uint256 ethConverted = _convertTokenToEth(drcAmount, drcAddress, deadline);\r\n        _convertEthToStrategyTokens(ethConverted, deadline);\r\n\r\n        uint256 podToMint = 0;\r\n        if (totalSupply() == 0) {\r\n            podToMint = drcAmount.mul(1e15);\r\n        } else {\r\n            ILendingPool lendingPool = ILendingPool(lendingPoolProvider.getLendingPool());\r\n            (uint256 vaultTotalInEth, , , , , ) = lendingPool.getUserAccountData(address(this));\r\n            uint256 newPodTotal = vaultTotalInEth.mul(1e18).div(currentPodUnitPrice);\r\n            podToMint = newPodTotal.sub(totalSupply());\r\n        }\r\n\r\n        _mint(msg.sender, podToMint);\r\n\r\n        emit Deposit(msg.sender, drcAmount, podToMint, totalSupply(), totalTokenStored());\r\n    }\r\n\r\n    /**\r\n     * @dev See {IDigitalReserve-withdrawDrc}.\r\n     */\r\n    function withdrawDrc(uint256 drcAmount, uint32 deadline) external override {\r\n        require(balanceOf(msg.sender) > 0, \"Vault balance is 0\");\r\n        \r\n        address[] memory path = new address[](2);\r\n        path[0] = uniswapRouter.WETH();\r\n        path[1] = drcAddress;\r\n\r\n        uint256 ethNeeded = uniswapRouter.getAmountsIn(drcAmount, path)[0];\r\n        uint256 ethNeededPlusFee = ethNeeded.mul(_feeBase + _feeFraction).div(_feeBase);\r\n\r\n        uint256 userStrategyTokens = _getStrategyTokensByPodAmount(balanceOf(msg.sender));\r\n\r\n        uint256 userVaultWorth = _getEthAmountByTokenAmount(userStrategyTokens, _strategyToken, false);\r\n\r\n        require(userVaultWorth >= ethNeededPlusFee, \"Attempt to withdraw more than user's holding.\");\r\n\r\n        uint256 amountFraction = ethNeededPlusFee.mul(1e10).div(userVaultWorth);\r\n        uint256 podToBurn = balanceOf(msg.sender).mul(amountFraction).div(1e10);\r\n\r\n        _withdrawProofOfDeposit(podToBurn, deadline);\r\n    }\r\n\r\n    /**\r\n     * @dev See {IDigitalReserve-withdrawPercentage}.\r\n     */\r\n    function withdrawPercentage(uint8 percentage, uint32 deadline) external override {\r\n        require(balanceOf(msg.sender) > 0, \"Vault balance is 0\");\r\n        require(percentage <= 100, \"Attempt to withdraw more than 100% of the asset\");\r\n\r\n        uint256 podToBurn = balanceOf(msg.sender).mul(percentage).div(100);\r\n        _withdrawProofOfDeposit(podToBurn, deadline);\r\n    }\r\n\r\n    /**\r\n     * @dev Enable or disable deposit.\r\n     * @param status Deposit allowed or not\r\n     * Disable deposit if it is to protect users' fund if there's any security issue or assist DR upgrade.\r\n     */\r\n    function changeDepositStatus(bool status) external onlyOwner {\r\n        depositEnabled = status;\r\n    }\r\n\r\n    /**\r\n     * @dev Change withdrawal fee percentage.\r\n     * If 1%, then input (1,100)\r\n     * If 0.5%, then input (5,1000)\r\n     * @param withdrawalFeeFraction_ Fraction of withdrawal fee based on withdrawalFeeBase_\r\n     * @param withdrawalFeeBase_ Fraction of withdrawal fee base\r\n     */\r\n    function changeFee(uint8 withdrawalFeeFraction_, uint8 withdrawalFeeBase_) external onlyOwner {\r\n        require(withdrawalFeeFraction_ <= withdrawalFeeBase_, \"Fee fraction exceeded base.\");\r\n        uint8 percentage = (withdrawalFeeFraction_ * 100) / withdrawalFeeBase_;\r\n        require(percentage <= 2, \"Attempt to set percentage higher than 2%.\"); // Requested by community\r\n\r\n        _feeFraction = withdrawalFeeFraction_;\r\n        _feeBase = withdrawalFeeBase_;\r\n    }\r\n\r\n    /**\r\n     * @dev Set or change DR strategy tokens and allocations.\r\n     * @param strategyToken_ strategy token address.\r\n     * @param deadline Unix timestamp after which the transaction will revert.\r\n     */\r\n    function setTokenAddress(\r\n        address strategyToken_,\r\n        uint32 deadline\r\n    ) external onlyOwner {\r\n        require(strategyToken_ != address(0x00), \"Strategy token address must be set.\");\r\n\r\n        address oldStrategyTokens = address(0x00);\r\n        address oldStrategyReserve = address(0x00);\r\n        uint256 ethConverted = 0;\r\n\r\n        if(_strategyToken != address(0x00) && _strategyReserve != address(0x00)){\r\n            oldStrategyTokens = _strategyToken;\r\n            oldStrategyReserve = _strategyReserve;\r\n            // Before mutate strategyTokens, convert current strategy tokens to ETH\r\n            ethConverted = _convertStrategyTokensToEth(totalTokenStored(), deadline);\r\n        }\r\n\r\n        _strategyToken = strategyToken_;\r\n        (address strategyReserve, , ) = protocolAddress.getReserveTokensAddresses(strategyToken_);\r\n\r\n        _strategyReserve = strategyReserve;\r\n        \r\n        if(ethConverted != 0){\r\n            _convertEthToStrategyTokens(ethConverted, deadline);\r\n        }\r\n\r\n        // if(_strategyReserve != address(0x00)){\r\n            emit SetToken(oldStrategyTokens, oldStrategyReserve, _strategyToken, _strategyReserve, totalTokenStored());\r\n        // }\r\n    }\r\n\r\n    /**\r\n     * @dev Withdraw DRC by DR-POD amount to burn.\r\n     * @param podToBurn Amount of DR-POD to burn in exchange for DRC.\r\n     * @param deadline Unix timestamp after which the transaction will revert.\r\n     */\r\n    function _withdrawProofOfDeposit(uint256 podToBurn, uint32 deadline) private {\r\n        uint256 strategyTokensToWithdraw = _getStrategyTokensByPodAmount(podToBurn);\r\n\r\n        _burn(msg.sender, podToBurn);\r\n\r\n        uint256 ethConverted = _convertStrategyTokensToEth(strategyTokensToWithdraw, deadline);\r\n        uint256 fees = ethConverted.mul(_feeFraction).div(_feeBase + _feeFraction);\r\n\r\n        uint256 drcAmount = _convertEthToToken(ethConverted.sub(fees), drcAddress, deadline);\r\n\r\n        /** For the production mode, it is better */\r\n        // SafeERC20.safeTransfer(IERC20(drcAddress), msg.sender, drcAmount);\r\n        // SafeERC20.safeTransfer(IERC20(uniswapRouter.WETH()), owner(), fees);\r\n\r\n        /** For the test mode, it is better to test and debug. */\r\n        IERC20(drcAddress).transfer(msg.sender, drcAmount);\r\n        IERC20(uniswapRouter.WETH()).transfer(owner(), fees);\r\n\r\n        emit Withdraw(msg.sender, drcAmount, fees, podToBurn, totalSupply(), totalTokenStored());\r\n    }\r\n\r\n    /**\r\n     * @dev Get ETH worth of a certain amount of a token.\r\n     * @param _amount Amount of token to convert.\r\n     * @param _fromAddress Address of token to convert from.\r\n     * @param _toAddress Address of token to convert to.\r\n     * @param excludeFees If uniswap fees is considered.\r\n     */\r\n    function _getAAmountByBAmount(\r\n        uint256 _amount,\r\n        address _fromAddress,\r\n        address _toAddress,\r\n        bool excludeFees\r\n    ) private view returns (uint256) {\r\n        address[] memory path = new address[](2);\r\n        path[0] = _fromAddress;\r\n        path[1] = _toAddress;\r\n\r\n        if (path[0] == path[1] || _amount == 0) {\r\n            return _amount;\r\n        }\r\n\r\n        uint256 amountOut = uniswapRouter.getAmountsOut(_amount, path)[1];\r\n\r\n        if (excludeFees) {\r\n            return amountOut.mul(1000).div(997);\r\n        } else {\r\n            return amountOut;\r\n        }\r\n    }\r\n\r\n    /**\r\n     * @dev Get the worth in a token of a certain amount of ETH.\r\n     * @param _amount Amount of ETH to convert.\r\n     * @param _tokenAddress Address of the token to convert to.\r\n     * @param excludeFees If uniswap fees is considered.\r\n     */\r\n    function _getTokenAmountByEthAmount(\r\n        uint256 _amount,\r\n        address _tokenAddress,\r\n        bool excludeFees\r\n    ) private view returns (uint256) {\r\n        return _getAAmountByBAmount(_amount, uniswapRouter.WETH(), _tokenAddress, excludeFees);\r\n    }\r\n\r\n    /**\r\n     * @dev Get ETH worth of a certain amount of a token.\r\n     * @param _amount Amount of token to convert.\r\n     * @param _tokenAddress Address of token to convert from.\r\n     * @param excludeFees If uniswap fees is considered.\r\n     */\r\n    function _getEthAmountByTokenAmount(\r\n        uint256 _amount,\r\n        address _tokenAddress,\r\n        bool excludeFees\r\n    ) private view returns (uint256) {\r\n        return _getAAmountByBAmount(_amount, _tokenAddress, uniswapRouter.WETH(), excludeFees);\r\n    }\r\n\r\n    /**\r\n     * @dev Get DR-POD worth in an array of strategy tokens.\r\n     * @param _amount Amount of DR-POD to convert.\r\n     */\r\n    function _getStrategyTokensByPodAmount(uint256 _amount) private view returns (uint256) {\r\n        uint256 strategyTokenAmount = 0;\r\n\r\n        uint256 podFraction = 0;\r\n        if(totalSupply() > 0){\r\n            podFraction = _amount.mul(1e10).div(totalSupply());\r\n        }\r\n        strategyTokenAmount = IERC20(_strategyReserve).balanceOf(address(this)).mul(podFraction).div(1e10);\r\n        return strategyTokenAmount;\r\n    }\r\n\r\n    /**\r\n     * @dev Convert a token to WETH via the Uniswap router.\r\n     * @param _amount Amount of tokens to swap.\r\n     * @param _tokenAddress Address of token to swap.\r\n     * @param deadline Unix timestamp after which the transaction will revert.\r\n     */\r\n    function _convertTokenToEth(\r\n        uint256 _amount,\r\n        address _tokenAddress,\r\n        uint32 deadline\r\n    ) private returns (uint256) {\r\n        if (_tokenAddress == uniswapRouter.WETH() || _amount == 0) {\r\n            return _amount;\r\n        }\r\n        address[] memory path = new address[](2);\r\n        path[0] = _tokenAddress;\r\n        path[1] = uniswapRouter.WETH();\r\n\r\n        /** For the production mode, it is better */\r\n        // SafeERC20.safeApprove(IERC20(path[0]), address(uniswapRouter), _amount);\r\n\r\n        /** For the test mode, it is better to test and debug */\r\n        IERC20(path[0]).approve(address(uniswapRouter), _amount);\r\n\r\n        uint256 amountOut = uniswapRouter.getAmountsOut(_amount, path)[1];\r\n        uint256 amountOutWithFeeTolerance = amountOut.mul(999).div(1000);\r\n        uint256 ethBeforeSwap = IERC20(path[1]).balanceOf(address(this));\r\n        uniswapRouter.swapExactTokensForTokensSupportingFeeOnTransferTokens(_amount, amountOutWithFeeTolerance, path, address(this), deadline);\r\n        uint256 ethAfterSwap = IERC20(path[1]).balanceOf(address(this));\r\n        return ethAfterSwap - ethBeforeSwap;\r\n    }\r\n\r\n    /**\r\n     * @dev Convert ETH to another token via the Uniswap router.\r\n     * @param _amount Amount of WETH to swap.\r\n     * @param _tokenAddress Address of token to swap to.\r\n     * @param deadline Unix timestamp after which the transaction will revert.\r\n     */\r\n    function _convertEthToToken(\r\n        uint256 _amount,\r\n        address _tokenAddress,\r\n        uint32 deadline\r\n    ) private returns (uint256) {\r\n        if (_tokenAddress == uniswapRouter.WETH() || _amount == 0) {\r\n            return _amount;\r\n        }\r\n        address[] memory path = new address[](2);\r\n        path[0] = uniswapRouter.WETH();\r\n        path[1] = _tokenAddress;\r\n\r\n        /** For the production mode, it is better */\r\n        // SafeERC20.safeApprove(IERC20(path[0]), address(uniswapRouter), _amount);\r\n\r\n        /** For the test mode, it is better to test and debug */\r\n        IERC20(path[0]).approve(address(uniswapRouter), _amount);\r\n\r\n        uint256 amountOut = uniswapRouter.getAmountsOut(_amount, path)[1];\r\n        uniswapRouter.swapExactTokensForTokens(_amount, amountOut, path, address(this), deadline);\r\n        return amountOut;\r\n    }\r\n\r\n    /**\r\n     * @dev Convert ETH to strategy tokens of DR in their allocation percentage.\r\n     * @param amount Amount of WETH to swap.\r\n     * @param deadline Unix timestamp after which the transaction will revert.\r\n     */\r\n    function _convertEthToStrategyTokens(\r\n        uint256 amount, \r\n        uint32 deadline\r\n    ) private returns (uint256) {\r\n        uint256 EthToTokenAmount = _convertEthToToken(amount, _strategyToken, deadline);\r\n\r\n        uint16 referralCode = 0;\r\n        ILendingPool lendingPool = ILendingPool(lendingPoolProvider.getLendingPool());\r\n\r\n        /** For the production mode, it is better */\r\n        // SafeERC20.safeApprove(IERC20(_strategyToken), address(lendingPoolProvider), amount);\r\n\r\n        /** For the test mode, it is better to test and debug */\r\n        IERC20(_strategyToken).approve(address(lendingPool), EthToTokenAmount);\r\n\r\n        lendingPool.deposit(_strategyToken, EthToTokenAmount, address(this), referralCode);\r\n    }\r\n\r\n    /**\r\n     * @dev Convert strategy tokens to WETH.\r\n     * @param amountToConvert Array of the amounts of strategy tokens to swap.\r\n     * @param deadline Unix timestamp after which the transaction will revert.\r\n     */\r\n    function _convertStrategyTokensToEth(\r\n        uint256 amountToConvert, \r\n        uint32 deadline\r\n    ) private returns (uint256) {\r\n        uint256 ethConverted = 0;\r\n\r\n        uint256 getStrategyToken = 0;\r\n        ILendingPool lendingPool = ILendingPool(lendingPoolProvider.getLendingPool());\r\n        getStrategyToken = lendingPool.withdraw(_strategyToken, amountToConvert, address(this));\r\n\r\n        ethConverted = _convertTokenToEth(getStrategyToken, _strategyToken, deadline);\r\n        return ethConverted;\r\n    }\r\n}\r\n",
  "sourcePath": "D:/work_data/blockchain/digital-reserve/contracts/DigitalReserve.sol",
  "compiler": {
    "name": "solc",
    "version": "0.6.12+commit.27d51765.Emscripten.clang"
  },
  "schemaVersion": "3.3.4",
  "updatedAt": "2021-04-14T10:56:24.599Z",
  "devdoc": {
    "details": "Implementation of Digital Reserve contract. Digital Reserve contract converts user's DRC into a set of SoV assets using the Uniswap router, and hold these assets for it's users. When users initiate a withdrawal action, the contract converts a share of the vault, that the user is requesting, to DRC and sends it back to their wallet.",
    "kind": "dev",
    "methods": {
      "allowance(address,address)": {
        "details": "See {IERC20-allowance}."
      },
      "approve(address,uint256)": {
        "details": "See {IERC20-approve}. Requirements: - `spender` cannot be the zero address."
      },
      "balanceOf(address)": {
        "details": "See {IERC20-balanceOf}."
      },
      "changeDepositStatus(bool)": {
        "details": "Enable or disable deposit.",
        "params": {
          "status": "Deposit allowed or not Disable deposit if it is to protect users' fund if there's any security issue or assist DR upgrade."
        }
      },
      "changeFee(uint8,uint8)": {
        "details": "Change withdrawal fee percentage. If 1%, then input (1,100) If 0.5%, then input (5,1000)",
        "params": {
          "withdrawalFeeBase_": "Fraction of withdrawal fee base",
          "withdrawalFeeFraction_": "Fraction of withdrawal fee based on withdrawalFeeBase_"
        }
      },
      "constructor": {
        "details": "Set Uniswap router address, DRC token address, DR name.",
        "params": {
          "_drcAddress": "DRC token address,",
          "_lendingPoolProvider": "AAVE Lenging Pool Provider address.",
          "_name": "DR POD token name",
          "_protocolAddress": "AAVE Protocol Contract address.",
          "_router": "Uniswap V2 router address.",
          "_symbol": "DR POD token symbol"
        }
      },
      "decimals()": {
        "details": "Returns the number of decimals used to get its user representation. For example, if `decimals` equals `2`, a balance of `505` tokens should be displayed to a user as `5,05` (`505 / 10 ** 2`). Tokens usually opt for a value of 18, imitating the relationship between Ether and Wei. This is the value {ERC20} uses, unless {_setupDecimals} is called. NOTE: This information is only used for _display_ purposes: it in no way affects any of the arithmetic of the contract, including {IERC20-balanceOf} and {IERC20-transfer}."
      },
      "decreaseAllowance(address,uint256)": {
        "details": "Atomically decreases the allowance granted to `spender` by the caller. This is an alternative to {approve} that can be used as a mitigation for problems described in {IERC20-approve}. Emits an {Approval} event indicating the updated allowance. Requirements: - `spender` cannot be the zero address. - `spender` must have allowance for the caller of at least `subtractedValue`."
      },
      "depositDrc(uint256,uint32)": {
        "details": "See {IDigitalReserve-depositDrc}."
      },
      "getProofOfDepositPrice()": {
        "details": "See {IDigitalReserve-getProofOfDepositPrice}."
      },
      "getUserVaultInDrc(address)": {
        "details": "See {IDigitalReserve-getUserVaultInDrc}."
      },
      "increaseAllowance(address,uint256)": {
        "details": "Atomically increases the allowance granted to `spender` by the caller. This is an alternative to {approve} that can be used as a mitigation for problems described in {IERC20-approve}. Emits an {Approval} event indicating the updated allowance. Requirements: - `spender` cannot be the zero address."
      },
      "name()": {
        "details": "Returns the name of the token."
      },
      "owner()": {
        "details": "Returns the address of the current owner."
      },
      "priceDecimals()": {
        "details": "See {IDigitalReserve-priceDecimals}."
      },
      "renounceOwnership()": {
        "details": "Leaves the contract without owner. It will not be possible to call `onlyOwner` functions anymore. Can only be called by the current owner. NOTE: Renouncing ownership will leave the contract without an owner, thereby removing any functionality that is only available to the owner."
      },
      "setTokenAddress(address,uint32)": {
        "details": "Set or change DR strategy tokens and allocations.",
        "params": {
          "deadline": "Unix timestamp after which the transaction will revert.",
          "strategyToken_": "strategy token address."
        }
      },
      "symbol()": {
        "details": "Returns the symbol of the token, usually a shorter version of the name."
      },
      "totalSupply()": {
        "details": "See {IERC20-totalSupply}."
      },
      "totalTokenStored()": {
        "details": "See {IDigitalReserve-totalTokenStored}."
      },
      "transfer(address,uint256)": {
        "details": "See {IERC20-transfer}. Requirements: - `recipient` cannot be the zero address. - the caller must have a balance of at least `amount`."
      },
      "transferFrom(address,address,uint256)": {
        "details": "See {IERC20-transferFrom}. Emits an {Approval} event indicating the updated allowance. This is not required by the EIP. See the note at the beginning of {ERC20}. Requirements: - `sender` and `recipient` cannot be the zero address. - `sender` must have a balance of at least `amount`. - the caller must have allowance for ``sender``'s tokens of at least `amount`."
      },
      "transferOwnership(address)": {
        "details": "Transfers ownership of the contract to a new account (`newOwner`). Can only be called by the current owner."
      },
      "withdrawDrc(uint256,uint32)": {
        "details": "See {IDigitalReserve-withdrawDrc}."
      },
      "withdrawPercentage(uint8,uint32)": {
        "details": "See {IDigitalReserve-withdrawPercentage}."
      },
      "withdrawalFee()": {
        "details": "See {IDigitalReserve-withdrawalFee}."
      }
    },
    "version": 1
  },
  "userdoc": {
    "kind": "user",
    "methods": {},
    "version": 1
  }
}